{
  "_format": "hh-sol-artifact-1",
  "contractName": "CrowdFundingPlatform",
  "sourceName": "contracts/CrowdFundingPlatform.sol",
  "abi": [
    {
      "inputs": [
        {
          "internalType": "address",
          "name": "target",
          "type": "address"
        }
      ],
      "name": "AddressEmptyCode",
      "type": "error"
    },
    {
      "inputs": [
        {
          "internalType": "address",
          "name": "implementation",
          "type": "address"
        }
      ],
      "name": "ERC1967InvalidImplementation",
      "type": "error"
    },
    {
      "inputs": [],
      "name": "ERC1967NonPayable",
      "type": "error"
    },
    {
      "inputs": [],
      "name": "FailedInnerCall",
      "type": "error"
    },
    {
      "inputs": [],
      "name": "InvalidInitialization",
      "type": "error"
    },
    {
      "inputs": [],
      "name": "NotInitializing",
      "type": "error"
    },
    {
      "inputs": [
        {
          "internalType": "address",
          "name": "owner",
          "type": "address"
        }
      ],
      "name": "OwnableInvalidOwner",
      "type": "error"
    },
    {
      "inputs": [
        {
          "internalType": "address",
          "name": "account",
          "type": "address"
        }
      ],
      "name": "OwnableUnauthorizedAccount",
      "type": "error"
    },
    {
      "inputs": [],
      "name": "UUPSUnauthorizedCallContext",
      "type": "error"
    },
    {
      "inputs": [
        {
          "internalType": "bytes32",
          "name": "slot",
          "type": "bytes32"
        }
      ],
      "name": "UUPSUnsupportedProxiableUUID",
      "type": "error"
    },
    {
      "anonymous": false,
      "inputs": [
        {
          "indexed": false,
          "internalType": "uint64",
          "name": "version",
          "type": "uint64"
        }
      ],
      "name": "Initialized",
      "type": "event"
    },
    {
      "anonymous": false,
      "inputs": [
        {
          "indexed": true,
          "internalType": "address",
          "name": "previousOwner",
          "type": "address"
        },
        {
          "indexed": true,
          "internalType": "address",
          "name": "newOwner",
          "type": "address"
        }
      ],
      "name": "OwnershipTransferred",
      "type": "event"
    },
    {
      "anonymous": false,
      "inputs": [
        {
          "indexed": false,
          "internalType": "address",
          "name": "projectAddress",
          "type": "address"
        },
        {
          "indexed": false,
          "internalType": "address",
          "name": "creator",
          "type": "address"
        },
        {
          "indexed": false,
          "internalType": "string",
          "name": "description",
          "type": "string"
        },
        {
          "indexed": false,
          "internalType": "uint256",
          "name": "goalAmount",
          "type": "uint256"
        },
        {
          "indexed": false,
          "internalType": "uint256",
          "name": "deadline",
          "type": "uint256"
        }
      ],
      "name": "ProjectCreated",
      "type": "event"
    },
    {
      "anonymous": false,
      "inputs": [
        {
          "indexed": true,
          "internalType": "address",
          "name": "implementation",
          "type": "address"
        }
      ],
      "name": "Upgraded",
      "type": "event"
    },
    {
      "inputs": [],
      "name": "UPGRADE_INTERFACE_VERSION",
      "outputs": [
        {
          "internalType": "string",
          "name": "",
          "type": "string"
        }
      ],
      "stateMutability": "view",
      "type": "function"
    },
    {
      "inputs": [
        {
          "internalType": "string",
          "name": "_description",
          "type": "string"
        },
        {
          "internalType": "uint256",
          "name": "_goalAmount",
          "type": "uint256"
        },
        {
          "internalType": "uint256",
          "name": "_duration",
          "type": "uint256"
        }
      ],
      "name": "createProject",
      "outputs": [],
      "stateMutability": "nonpayable",
      "type": "function"
    },
    {
      "inputs": [],
      "name": "getProjects",
      "outputs": [
        {
          "internalType": "address[]",
          "name": "",
          "type": "address[]"
        }
      ],
      "stateMutability": "view",
      "type": "function"
    },
    {
      "inputs": [
        {
          "internalType": "address",
          "name": "initialOwner",
          "type": "address"
        }
      ],
      "name": "initialize",
      "outputs": [],
      "stateMutability": "nonpayable",
      "type": "function"
    },
    {
      "inputs": [],
      "name": "owner",
      "outputs": [
        {
          "internalType": "address",
          "name": "",
          "type": "address"
        }
      ],
      "stateMutability": "view",
      "type": "function"
    },
    {
      "inputs": [
        {
          "internalType": "uint256",
          "name": "",
          "type": "uint256"
        }
      ],
      "name": "projects",
      "outputs": [
        {
          "internalType": "address",
          "name": "",
          "type": "address"
        }
      ],
      "stateMutability": "view",
      "type": "function"
    },
    {
      "inputs": [],
      "name": "proxiableUUID",
      "outputs": [
        {
          "internalType": "bytes32",
          "name": "",
          "type": "bytes32"
        }
      ],
      "stateMutability": "view",
      "type": "function"
    },
    {
      "inputs": [],
      "name": "renounceOwnership",
      "outputs": [],
      "stateMutability": "nonpayable",
      "type": "function"
    },
    {
      "inputs": [
        {
          "internalType": "address",
          "name": "newOwner",
          "type": "address"
        }
      ],
      "name": "transferOwnership",
      "outputs": [],
      "stateMutability": "nonpayable",
      "type": "function"
    },
    {
      "inputs": [
        {
          "internalType": "address",
          "name": "newImplementation",
          "type": "address"
        },
        {
          "internalType": "bytes",
          "name": "data",
          "type": "bytes"
        }
      ],
      "name": "upgradeToAndCall",
      "outputs": [],
      "stateMutability": "payable",
      "type": "function"
    }
  ],
  "bytecode": "0x60a06040523073ffffffffffffffffffffffffffffffffffffffff1660809073ffffffffffffffffffffffffffffffffffffffff1681525034801561004357600080fd5b50608051612f6361006d600039600081816107410152818161079601526109510152612f636000f3fe6080604052600436106100915760003560e01c8063ad3cb1cc11610059578063ad3cb1cc1461015c578063c4d66de814610187578063dcc60128146101b0578063f2fde38b146101db578063f3a6ac5f1461020457610091565b8063107046bd146100965780634f1ef286146100d357806352d1902d146100ef578063715018a61461011a5780638da5cb5b14610131575b600080fd5b3480156100a257600080fd5b506100bd60048036038101906100b8919061101d565b61022d565b6040516100ca919061108b565b60405180910390f35b6100ed60048036038101906100e89190611218565b61026c565b005b3480156100fb57600080fd5b5061010461028b565b604051610111919061128d565b60405180910390f35b34801561012657600080fd5b5061012f6102be565b005b34801561013d57600080fd5b506101466102d2565b604051610153919061108b565b60405180910390f35b34801561016857600080fd5b5061017161030a565b60405161017e9190611327565b60405180910390f35b34801561019357600080fd5b506101ae60048036038101906101a99190611349565b610343565b005b3480156101bc57600080fd5b506101c56104da565b6040516101d29190611434565b60405180910390f35b3480156101e757600080fd5b5061020260048036038101906101fd9190611349565b610568565b005b34801561021057600080fd5b5061022b600480360381019061022691906114f7565b6105ee565b005b6000818154811061023d57600080fd5b906000526020600020016000915054906101000a900473ffffffffffffffffffffffffffffffffffffffff1681565b61027461073f565b61027d82610825565b6102878282610830565b5050565b600061029561094f565b7f360894a13ba1a3210667c828492db98dca3e2076cc3735a920a3ca505d382bbc60001b905090565b6102c66109d6565b6102d06000610a5d565b565b6000806102dd610b34565b90508060000160009054906101000a900473ffffffffffffffffffffffffffffffffffffffff1691505090565b6040518060400160405280600581526020017f352e302e3000000000000000000000000000000000000000000000000000000081525081565b600061034d610b5c565b905060008160000160089054906101000a900460ff1615905060008260000160009054906101000a900467ffffffffffffffff1690506000808267ffffffffffffffff1614801561039b5750825b9050600060018367ffffffffffffffff161480156103d0575060003073ffffffffffffffffffffffffffffffffffffffff163b145b9050811580156103de575080155b15610415576040517ff92ee8a900000000000000000000000000000000000000000000000000000000815260040160405180910390fd5b60018560000160006101000a81548167ffffffffffffffff021916908367ffffffffffffffff16021790555083156104655760018560000160086101000a81548160ff0219169083151502179055505b61046e86610b84565b610476610b98565b83156104d25760008560000160086101000a81548160ff0219169083151502179055507fc7f505b2f371ae2175ee4913f4499e1f2633a7b5936321eed1cdaeb6115181d260016040516104c991906115bf565b60405180910390a15b505050505050565b6060600080548060200260200160405190810160405280929190818152602001828054801561055e57602002820191906000526020600020905b8160009054906101000a900473ffffffffffffffffffffffffffffffffffffffff1673ffffffffffffffffffffffffffffffffffffffff1681526020019060010190808311610514575b5050505050905090565b6105706109d6565b600073ffffffffffffffffffffffffffffffffffffffff168173ffffffffffffffffffffffffffffffffffffffff16036105e25760006040517f1e4fbdf70000000000000000000000000000000000000000000000000000000081526004016105d9919061108b565b60405180910390fd5b6105eb81610a5d565b50565b60006040516105fc90610fc6565b604051809103906000f080158015610618573d6000803e3d6000fd5b5090508073ffffffffffffffffffffffffffffffffffffffff1663e8668c52338686866040518563ffffffff1660e01b815260040161065a94939291906115e9565b600060405180830381600087803b15801561067457600080fd5b505af1158015610688573d6000803e3d6000fd5b505050506000819080600181540180825580915050600190039060005260206000200160009091909190916101000a81548173ffffffffffffffffffffffffffffffffffffffff021916908373ffffffffffffffffffffffffffffffffffffffff1602179055507ff474a44bbf67e28a60e1e8977a0d7bdf30896d6b88b7c83710a32ad5276119948133868686426107209190611664565b604051610731959493929190611698565b60405180910390a150505050565b7f000000000000000000000000000000000000000000000000000000000000000073ffffffffffffffffffffffffffffffffffffffff163073ffffffffffffffffffffffffffffffffffffffff1614806107ec57507f000000000000000000000000000000000000000000000000000000000000000073ffffffffffffffffffffffffffffffffffffffff166107d3610ba2565b73ffffffffffffffffffffffffffffffffffffffff1614155b15610823576040517fe07c8dba00000000000000000000000000000000000000000000000000000000815260040160405180910390fd5b565b61082d6109d6565b50565b8173ffffffffffffffffffffffffffffffffffffffff166352d1902d6040518163ffffffff1660e01b8152600401602060405180830381865afa92505050801561089857506040513d601f19601f82011682018060405250810190610895919061171e565b60015b6108d957816040517f4c9c8ce30000000000000000000000000000000000000000000000000000000081526004016108d0919061108b565b60405180910390fd5b7f360894a13ba1a3210667c828492db98dca3e2076cc3735a920a3ca505d382bbc60001b811461094057806040517faa1d49a4000000000000000000000000000000000000000000000000000000008152600401610937919061128d565b60405180910390fd5b61094a8383610bf9565b505050565b7f000000000000000000000000000000000000000000000000000000000000000073ffffffffffffffffffffffffffffffffffffffff163073ffffffffffffffffffffffffffffffffffffffff16146109d4576040517fe07c8dba00000000000000000000000000000000000000000000000000000000815260040160405180910390fd5b565b6109de610c6c565b73ffffffffffffffffffffffffffffffffffffffff166109fc6102d2565b73ffffffffffffffffffffffffffffffffffffffff1614610a5b57610a1f610c6c565b6040517f118cdaa7000000000000000000000000000000000000000000000000000000008152600401610a52919061108b565b60405180910390fd5b565b6000610a67610b34565b905060008160000160009054906101000a900473ffffffffffffffffffffffffffffffffffffffff169050828260000160006101000a81548173ffffffffffffffffffffffffffffffffffffffff021916908373ffffffffffffffffffffffffffffffffffffffff1602179055508273ffffffffffffffffffffffffffffffffffffffff168173ffffffffffffffffffffffffffffffffffffffff167f8be0079c531659141344cd1fd0a4f28419497f9722a3daafe3b4186f6b6457e060405160405180910390a3505050565b60007f9016d09d72d40fdae2fd8ceac6b6234c7706214fd39c1cd1e609a0528c199300905090565b60007ff0c57e16840df040f15088dc2f81fe391c3923bec73e23a9662efc9c229c6a00905090565b610b8c610c74565b610b9581610cb4565b50565b610ba0610c74565b565b6000610bd07f360894a13ba1a3210667c828492db98dca3e2076cc3735a920a3ca505d382bbc60001b610d3a565b60000160009054906101000a900473ffffffffffffffffffffffffffffffffffffffff16905090565b610c0282610d44565b8173ffffffffffffffffffffffffffffffffffffffff167fbc7cd75a20ee27fd9adebab32041f755214dbc6bffa90cc0225b39da2e5c2d3b60405160405180910390a2600081511115610c5f57610c598282610e11565b50610c68565b610c67610e95565b5b5050565b600033905090565b610c7c610ed2565b610cb2576040517fd7e6bcf800000000000000000000000000000000000000000000000000000000815260040160405180910390fd5b565b610cbc610c74565b600073ffffffffffffffffffffffffffffffffffffffff168173ffffffffffffffffffffffffffffffffffffffff1603610d2e5760006040517f1e4fbdf7000000000000000000000000000000000000000000000000000000008152600401610d25919061108b565b60405180910390fd5b610d3781610a5d565b50565b6000819050919050565b60008173ffffffffffffffffffffffffffffffffffffffff163b03610da057806040517f4c9c8ce3000000000000000000000000000000000000000000000000000000008152600401610d97919061108b565b60405180910390fd5b80610dcd7f360894a13ba1a3210667c828492db98dca3e2076cc3735a920a3ca505d382bbc60001b610d3a565b60000160006101000a81548173ffffffffffffffffffffffffffffffffffffffff021916908373ffffffffffffffffffffffffffffffffffffffff16021790555050565b60606000808473ffffffffffffffffffffffffffffffffffffffff1684604051610e3b9190611792565b600060405180830381855af49150503d8060008114610e76576040519150601f19603f3d011682016040523d82523d6000602084013e610e7b565b606091505b5091509150610e8b858383610ef2565b9250505092915050565b6000341115610ed0576040517fb398979f00000000000000000000000000000000000000000000000000000000815260040160405180910390fd5b565b6000610edc610b5c565b60000160089054906101000a900460ff16905090565b606082610f0757610f0282610f81565b610f79565b60008251148015610f2f575060008473ffffffffffffffffffffffffffffffffffffffff163b145b15610f7157836040517f9996b315000000000000000000000000000000000000000000000000000000008152600401610f68919061108b565b60405180910390fd5b819050610f7a565b5b9392505050565b600081511115610f945780518082602001fd5b6040517f1425ea4200000000000000000000000000000000000000000000000000000000815260040160405180910390fd5b611784806117aa83390190565b6000604051905090565b600080fd5b600080fd5b6000819050919050565b610ffa81610fe7565b811461100557600080fd5b50565b60008135905061101781610ff1565b92915050565b60006020828403121561103357611032610fdd565b5b600061104184828501611008565b91505092915050565b600073ffffffffffffffffffffffffffffffffffffffff82169050919050565b60006110758261104a565b9050919050565b6110858161106a565b82525050565b60006020820190506110a0600083018461107c565b92915050565b6110af8161106a565b81146110ba57600080fd5b50565b6000813590506110cc816110a6565b92915050565b600080fd5b600080fd5b6000601f19601f8301169050919050565b7f4e487b7100000000000000000000000000000000000000000000000000000000600052604160045260246000fd5b611125826110dc565b810181811067ffffffffffffffff82111715611144576111436110ed565b5b80604052505050565b6000611157610fd3565b9050611163828261111c565b919050565b600067ffffffffffffffff821115611183576111826110ed565b5b61118c826110dc565b9050602081019050919050565b82818337600083830152505050565b60006111bb6111b684611168565b61114d565b9050828152602081018484840111156111d7576111d66110d7565b5b6111e2848285611199565b509392505050565b600082601f8301126111ff576111fe6110d2565b5b813561120f8482602086016111a8565b91505092915050565b6000806040838503121561122f5761122e610fdd565b5b600061123d858286016110bd565b925050602083013567ffffffffffffffff81111561125e5761125d610fe2565b5b61126a858286016111ea565b9150509250929050565b6000819050919050565b61128781611274565b82525050565b60006020820190506112a2600083018461127e565b92915050565b600081519050919050565b600082825260208201905092915050565b60005b838110156112e25780820151818401526020810190506112c7565b60008484015250505050565b60006112f9826112a8565b61130381856112b3565b93506113138185602086016112c4565b61131c816110dc565b840191505092915050565b6000602082019050818103600083015261134181846112ee565b905092915050565b60006020828403121561135f5761135e610fdd565b5b600061136d848285016110bd565b91505092915050565b600081519050919050565b600082825260208201905092915050565b6000819050602082019050919050565b6113ab8161106a565b82525050565b60006113bd83836113a2565b60208301905092915050565b6000602082019050919050565b60006113e182611376565b6113eb8185611381565b93506113f683611392565b8060005b8381101561142757815161140e88826113b1565b9750611419836113c9565b9250506001810190506113fa565b5085935050505092915050565b6000602082019050818103600083015261144e81846113d6565b905092915050565b600067ffffffffffffffff821115611471576114706110ed565b5b61147a826110dc565b9050602081019050919050565b600061149a61149584611456565b61114d565b9050828152602081018484840111156114b6576114b56110d7565b5b6114c1848285611199565b509392505050565b600082601f8301126114de576114dd6110d2565b5b81356114ee848260208601611487565b91505092915050565b6000806000606084860312156115105761150f610fdd565b5b600084013567ffffffffffffffff81111561152e5761152d610fe2565b5b61153a868287016114c9565b935050602061154b86828701611008565b925050604061155c86828701611008565b9150509250925092565b6000819050919050565b600067ffffffffffffffff82169050919050565b6000819050919050565b60006115a96115a461159f84611566565b611584565b611570565b9050919050565b6115b98161158e565b82525050565b60006020820190506115d460008301846115b0565b92915050565b6115e381610fe7565b82525050565b60006080820190506115fe600083018761107c565b818103602083015261161081866112ee565b905061161f60408301856115da565b61162c60608301846115da565b95945050505050565b7f4e487b7100000000000000000000000000000000000000000000000000000000600052601160045260246000fd5b600061166f82610fe7565b915061167a83610fe7565b925082820190508082111561169257611691611635565b5b92915050565b600060a0820190506116ad600083018861107c565b6116ba602083018761107c565b81810360408301526116cc81866112ee565b90506116db60608301856115da565b6116e860808301846115da565b9695505050505050565b6116fb81611274565b811461170657600080fd5b50565b600081519050611718816116f2565b92915050565b60006020828403121561173457611733610fdd565b5b600061174284828501611709565b91505092915050565b600081519050919050565b600081905092915050565b600061176c8261174b565b6117768185611756565b93506117868185602086016112c4565b80840191505092915050565b600061179e8284611761565b91508190509291505056fe608060405234801561001057600080fd5b50611764806100206000396000f3fe6080604052600436106100a75760003560e01c80637284e416116100645780637284e41614610172578063c19d93fb1461019d578063e8668c52146101c8578063ed88c68e146101f1578063f441b1c8146101fb578063f8626af814610226576100a7565b806302d05d3f146100ac57806324600fc3146100d75780632636b945146100ee57806329dcb0cf146101195780633deb33e714610144578063590e1ae31461015b575b600080fd5b3480156100b857600080fd5b506100c1610264565b6040516100ce9190610c51565b60405180910390f35b3480156100e357600080fd5b506100ec610288565b005b3480156100fa57600080fd5b506101036104ae565b6040516101109190610c85565b60405180910390f35b34801561012557600080fd5b5061012e6104b4565b60405161013b9190610c85565b60405180910390f35b34801561015057600080fd5b506101596104ba565b005b34801561016757600080fd5b50610170610624565b005b34801561017e57600080fd5b506101876108af565b6040516101949190610d30565b60405180910390f35b3480156101a957600080fd5b506101b261093d565b6040516101bf9190610dc9565b60405180910390f35b3480156101d457600080fd5b506101ef60048036038101906101ea9190610f85565b610950565b005b6101f96109ea565b005b34801561020757600080fd5b50610210610bb6565b60405161021d9190610c85565b60405180910390f35b34801561023257600080fd5b5061024d60048036038101906102489190611008565b610bbc565b60405161025b929190611035565b60405180910390f35b60008054906101000a900473ffffffffffffffffffffffffffffffffffffffff1681565b60008054906101000a900473ffffffffffffffffffffffffffffffffffffffff1673ffffffffffffffffffffffffffffffffffffffff163373ffffffffffffffffffffffffffffffffffffffff1614610316576040517f08c379a000000000000000000000000000000000000000000000000000000000815260040161030d906110aa565b60405180910390fd5b60035442101561035b576040517f08c379a000000000000000000000000000000000000000000000000000000000815260040161035290611116565b60405180910390fd5b6001600281111561036f5761036e610d52565b5b600560009054906101000a900460ff16600281111561039157610390610d52565b5b146103d1576040517f08c379a00000000000000000000000000000000000000000000000000000000081526004016103c890611182565b60405180910390fd5b600047905060008054906101000a900473ffffffffffffffffffffffffffffffffffffffff1673ffffffffffffffffffffffffffffffffffffffff166108fc829081150290604051600060405180830381858888f1935050505015801561043c573d6000803e3d6000fd5b5060008054906101000a900473ffffffffffffffffffffffffffffffffffffffff1673ffffffffffffffffffffffffffffffffffffffff167feaff4b37086828766ad3268786972c0cd24259d4c87a80f9d3963a3c3d999b0d826040516104a39190610c85565b60405180910390a250565b60025481565b60035481565b6003544210156104ff576040517f08c379a00000000000000000000000000000000000000000000000000000000081526004016104f690611116565b60405180910390fd5b6000600281111561051357610512610d52565b5b600560009054906101000a900460ff16600281111561053557610534610d52565b5b14610575576040517f08c379a000000000000000000000000000000000000000000000000000000000815260040161056c906111ee565b60405180910390fd5b600254600454106105b0576001600560006101000a81548160ff021916908360028111156105a6576105a5610d52565b5b02179055506105dc565b6002600560006101000a81548160ff021916908360028111156105d6576105d5610d52565b5b02179055505b7f35bb0cd5f89def7829cadbfe305076fca9a4811f847e3ce1cd4e017651dda4d4600560009054906101000a900460ff1660405161061a9190610dc9565b60405180910390a1565b600354421015610669576040517f08c379a000000000000000000000000000000000000000000000000000000000815260040161066090611116565b60405180910390fd5b60028081111561067c5761067b610d52565b5b600560009054906101000a900460ff16600281111561069e5761069d610d52565b5b146106de576040517f08c379a00000000000000000000000000000000000000000000000000000000081526004016106d59061125a565b60405180910390fd5b6000805b6006805490508110156107d3573373ffffffffffffffffffffffffffffffffffffffff166006828154811061071a5761071961127a565b5b906000526020600020906002020160000160009054906101000a900473ffffffffffffffffffffffffffffffffffffffff1673ffffffffffffffffffffffffffffffffffffffff16036107c6576006818154811061077b5761077a61127a565b5b9060005260206000209060020201600101548261079891906112d8565b91506000600682815481106107b0576107af61127a565b5b9060005260206000209060020201600101819055505b80806001019150506106e2565b5060008111610817576040517f08c379a000000000000000000000000000000000000000000000000000000000815260040161080e90611358565b60405180910390fd5b3373ffffffffffffffffffffffffffffffffffffffff166108fc829081150290604051600060405180830381858888f1935050505015801561085d573d6000803e3d6000fd5b503373ffffffffffffffffffffffffffffffffffffffff167fbada1a1bf129e41a8af5abe00997bd8a8cb1770cb0cf68314eb4b1d6c4271397826040516108a49190610c85565b60405180910390a250565b600180546108bc906113a7565b80601f01602080910402602001604051908101604052809291908181526020018280546108e8906113a7565b80156109355780601f1061090a57610100808354040283529160200191610935565b820191906000526020600020905b81548152906001019060200180831161091857829003601f168201915b505050505081565b600560009054906101000a900460ff1681565b836000806101000a81548173ffffffffffffffffffffffffffffffffffffffff021916908373ffffffffffffffffffffffffffffffffffffffff160217905550826001908161099f9190611584565b508160028190555080426109b391906112d8565b6003819055506000600560006101000a81548160ff021916908360028111156109df576109de610d52565b5b021790555050505050565b600060028111156109fe576109fd610d52565b5b600560009054906101000a900460ff166002811115610a2057610a1f610d52565b5b14610a60576040517f08c379a0000000000000000000000000000000000000000000000000000000008152600401610a57906116a2565b60405180910390fd5b6003544210610aa4576040517f08c379a0000000000000000000000000000000000000000000000000000000008152600401610a9b9061170e565b60405180910390fd5b600660405180604001604052803373ffffffffffffffffffffffffffffffffffffffff16815260200134815250908060018154018082558091505060019003906000526020600020906002020160009091909190915060008201518160000160006101000a81548173ffffffffffffffffffffffffffffffffffffffff021916908373ffffffffffffffffffffffffffffffffffffffff1602179055506020820151816001015550503460046000828254610b5f91906112d8565b925050819055503373ffffffffffffffffffffffffffffffffffffffff167f264f630d9efa0d07053a31163641d9fcc0adafc9d9e76f1c37c2ce3a558d2c5234604051610bac9190610c85565b60405180910390a2565b60045481565b60068181548110610bcc57600080fd5b90600052602060002090600202016000915090508060000160009054906101000a900473ffffffffffffffffffffffffffffffffffffffff16908060010154905082565b600073ffffffffffffffffffffffffffffffffffffffff82169050919050565b6000610c3b82610c10565b9050919050565b610c4b81610c30565b82525050565b6000602082019050610c666000830184610c42565b92915050565b6000819050919050565b610c7f81610c6c565b82525050565b6000602082019050610c9a6000830184610c76565b92915050565b600081519050919050565b600082825260208201905092915050565b60005b83811015610cda578082015181840152602081019050610cbf565b60008484015250505050565b6000601f19601f8301169050919050565b6000610d0282610ca0565b610d0c8185610cab565b9350610d1c818560208601610cbc565b610d2581610ce6565b840191505092915050565b60006020820190508181036000830152610d4a8184610cf7565b905092915050565b7f4e487b7100000000000000000000000000000000000000000000000000000000600052602160045260246000fd5b60038110610d9257610d91610d52565b5b50565b6000819050610da382610d81565b919050565b6000610db382610d95565b9050919050565b610dc381610da8565b82525050565b6000602082019050610dde6000830184610dba565b92915050565b6000604051905090565b600080fd5b600080fd5b610e0181610c30565b8114610e0c57600080fd5b50565b600081359050610e1e81610df8565b92915050565b600080fd5b600080fd5b7f4e487b7100000000000000000000000000000000000000000000000000000000600052604160045260246000fd5b610e6682610ce6565b810181811067ffffffffffffffff82111715610e8557610e84610e2e565b5b80604052505050565b6000610e98610de4565b9050610ea48282610e5d565b919050565b600067ffffffffffffffff821115610ec457610ec3610e2e565b5b610ecd82610ce6565b9050602081019050919050565b82818337600083830152505050565b6000610efc610ef784610ea9565b610e8e565b905082815260208101848484011115610f1857610f17610e29565b5b610f23848285610eda565b509392505050565b600082601f830112610f4057610f3f610e24565b5b8135610f50848260208601610ee9565b91505092915050565b610f6281610c6c565b8114610f6d57600080fd5b50565b600081359050610f7f81610f59565b92915050565b60008060008060808587031215610f9f57610f9e610dee565b5b6000610fad87828801610e0f565b945050602085013567ffffffffffffffff811115610fce57610fcd610df3565b5b610fda87828801610f2b565b9350506040610feb87828801610f70565b9250506060610ffc87828801610f70565b91505092959194509250565b60006020828403121561101e5761101d610dee565b5b600061102c84828501610f70565b91505092915050565b600060408201905061104a6000830185610c42565b6110576020830184610c76565b9392505050565b7f4e6f74207468652070726f6a6563742063726561746f72000000000000000000600082015250565b6000611094601783610cab565b915061109f8261105e565b602082019050919050565b600060208201905081810360008301526110c381611087565b9050919050565b7f50726f6a656374206973207374696c6c206f6e676f696e670000000000000000600082015250565b6000611100601883610cab565b915061110b826110ca565b602082019050919050565b6000602082019050818103600083015261112f816110f3565b9050919050565b7f50726f6a656374206973206e6f74207375636365737366756c00000000000000600082015250565b600061116c601983610cab565b915061117782611136565b602082019050919050565b6000602082019050818103600083015261119b8161115f565b9050919050565b7f50726f6a65637420697320616c726564792066696e616c697a65640000000000600082015250565b60006111d8601b83610cab565b91506111e3826111a2565b602082019050919050565b60006020820190508181036000830152611207816111cb565b9050919050565b7f50726f6a656374206973206e6f74206661696c65640000000000000000000000600082015250565b6000611244601583610cab565b915061124f8261120e565b602082019050919050565b6000602082019050818103600083015261127381611237565b9050919050565b7f4e487b7100000000000000000000000000000000000000000000000000000000600052603260045260246000fd5b7f4e487b7100000000000000000000000000000000000000000000000000000000600052601160045260246000fd5b60006112e382610c6c565b91506112ee83610c6c565b9250828201905080821115611306576113056112a9565b5b92915050565b7f6e6f2066756e647320746f20726566756e640000000000000000000000000000600082015250565b6000611342601283610cab565b915061134d8261130c565b602082019050919050565b6000602082019050818103600083015261137181611335565b9050919050565b7f4e487b7100000000000000000000000000000000000000000000000000000000600052602260045260246000fd5b600060028204905060018216806113bf57607f821691505b6020821081036113d2576113d1611378565b5b50919050565b60008190508160005260206000209050919050565b60006020601f8301049050919050565b600082821b905092915050565b60006008830261143a7fffffffffffffffffffffffffffffffffffffffffffffffffffffffffffffffff826113fd565b61144486836113fd565b95508019841693508086168417925050509392505050565b6000819050919050565b600061148161147c61147784610c6c565b61145c565b610c6c565b9050919050565b6000819050919050565b61149b83611466565b6114af6114a782611488565b84845461140a565b825550505050565b600090565b6114c46114b7565b6114cf818484611492565b505050565b5b818110156114f3576114e86000826114bc565b6001810190506114d5565b5050565b601f82111561153857611509816113d8565b611512846113ed565b81016020851015611521578190505b61153561152d856113ed565b8301826114d4565b50505b505050565b600082821c905092915050565b600061155b6000198460080261153d565b1980831691505092915050565b6000611574838361154a565b9150826002028217905092915050565b61158d82610ca0565b67ffffffffffffffff8111156115a6576115a5610e2e565b5b6115b082546113a7565b6115bb8282856114f7565b600060209050601f8311600181146115ee57600084156115dc578287015190505b6115e68582611568565b86555061164e565b601f1984166115fc866113d8565b60005b82811015611624578489015182556001820191506020850194506020810190506115ff565b86831015611641578489015161163d601f89168261154a565b8355505b6001600288020188555050505b505050505050565b7f50726f6a656374206973206e6f74206f6e676f696e6700000000000000000000600082015250565b600061168c601683610cab565b915061169782611656565b602082019050919050565b600060208201905081810360008301526116bb8161167f565b9050919050565b7f50656f6a65637420646561646c696e6520686173207061737365640000000000600082015250565b60006116f8601b83610cab565b9150611703826116c2565b602082019050919050565b60006020820190508181036000830152611727816116eb565b905091905056fea2646970667358221220a1be392b3d64ced2b12d7a4a21cca582819293c2a1c9551b4b5f14846300789264736f6c63430008180033a26469706673582212208a8f339e63c2f7b3b4cd985bd1214cec720de39a3ca2f6073f750971881858ac64736f6c63430008180033",
  "linkReferences": {},
  "deployedLinkReferences": {}
}