{
	"Test.sol": {
		"Test": {
			"abi": [
				{
					"inputs": [],
					"name": "addBalance",
					"outputs": [
						{
							"internalType": "uint256",
							"name": "",
							"type": "uint256"
						}
					],
					"stateMutability": "payable",
					"type": "function"
				},
				{
					"inputs": [],
					"name": "getBalance",
					"outputs": [
						{
							"internalType": "uint256",
							"name": "",
							"type": "uint256"
						}
					],
					"stateMutability": "view",
					"type": "function"
				},
				{
					"inputs": [],
					"name": "getCode",
					"outputs": [
						{
							"internalType": "bytes",
							"name": "",
							"type": "bytes"
						}
					],
					"stateMutability": "view",
					"type": "function"
				},
				{
					"inputs": [],
					"name": "getCodeHash",
					"outputs": [
						{
							"internalType": "bytes32",
							"name": "",
							"type": "bytes32"
						}
					],
					"stateMutability": "view",
					"type": "function"
				},
				{
					"inputs": [
						{
							"internalType": "address payable",
							"name": "_targetAddr",
							"type": "address"
						}
					],
					"name": "transfer",
					"outputs": [],
					"stateMutability": "nonpayable",
					"type": "function"
				}
			],
			"devdoc": {
				"kind": "dev",
				"methods": {},
				"version": 1
			},
			"evm": {
				"assembly": "    /* \"Test.sol\":61:654  contract Test{... */\n  mstore(0x40, 0x80)\n  callvalue\n  dup1\n  iszero\n  tag_1\n  jumpi\n  0x00\n  dup1\n  revert\ntag_1:\n  pop\n  dataSize(sub_0)\n  dup1\n  dataOffset(sub_0)\n  0x00\n  codecopy\n  0x00\n  return\nstop\n\nsub_0: assembly {\n        /* \"Test.sol\":61:654  contract Test{... */\n      mstore(0x40, 0x80)\n      jumpi(tag_1, lt(calldatasize, 0x04))\n      shr(0xe0, calldataload(0x00))\n      dup1\n      0x12065fe0\n      eq\n      tag_2\n      jumpi\n      dup1\n      0x1a695230\n      eq\n      tag_3\n      jumpi\n      dup1\n      0x83dd41c6\n      eq\n      tag_4\n      jumpi\n      dup1\n      0xb163cc38\n      eq\n      tag_5\n      jumpi\n      dup1\n      0xea879634\n      eq\n      tag_6\n      jumpi\n    tag_1:\n      0x00\n      dup1\n      revert\n        /* \"Test.sol\":191:290  function getBalance()public view  returns (uint256) {... */\n    tag_2:\n      callvalue\n      dup1\n      iszero\n      tag_7\n      jumpi\n      0x00\n      dup1\n      revert\n    tag_7:\n      pop\n      tag_8\n      tag_9\n      jump\t// in\n    tag_8:\n      mload(0x40)\n      tag_10\n      swap2\n      swap1\n      tag_11\n      jump\t// in\n    tag_10:\n      mload(0x40)\n      dup1\n      swap2\n      sub\n      swap1\n      return\n        /* \"Test.sol\":554:651  function transfer(address payable  _targetAddr) public {... */\n    tag_3:\n      callvalue\n      dup1\n      iszero\n      tag_12\n      jumpi\n      0x00\n      dup1\n      revert\n    tag_12:\n      pop\n      tag_13\n      0x04\n      dup1\n      calldatasize\n      sub\n      dup2\n      add\n      swap1\n      tag_14\n      swap2\n      swap1\n      tag_15\n      jump\t// in\n    tag_14:\n      tag_16\n      jump\t// in\n    tag_13:\n      stop\n        /* \"Test.sol\":298:400  function getCodeHash() public  view  returns (bytes32){... */\n    tag_4:\n      callvalue\n      dup1\n      iszero\n      tag_17\n      jumpi\n      0x00\n      dup1\n      revert\n    tag_17:\n      pop\n      tag_18\n      tag_19\n      jump\t// in\n    tag_18:\n      mload(0x40)\n      tag_20\n      swap2\n      swap1\n      tag_21\n      jump\t// in\n    tag_20:\n      mload(0x40)\n      dup1\n      swap2\n      sub\n      swap1\n      return\n        /* \"Test.sol\":408:546  function addBalance()public  payable returns (uint256) {... */\n    tag_5:\n      tag_22\n      tag_23\n      jump\t// in\n    tag_22:\n      mload(0x40)\n      tag_24\n      swap2\n      swap1\n      tag_11\n      jump\t// in\n    tag_24:\n      mload(0x40)\n      dup1\n      swap2\n      sub\n      swap1\n      return\n        /* \"Test.sol\":83:183  function getCode() public view  returns ( bytes memory ){... */\n    tag_6:\n      callvalue\n      dup1\n      iszero\n      tag_25\n      jumpi\n      0x00\n      dup1\n      revert\n    tag_25:\n      pop\n      tag_26\n      tag_27\n      jump\t// in\n    tag_26:\n      mload(0x40)\n      tag_28\n      swap2\n      swap1\n      tag_29\n      jump\t// in\n    tag_28:\n      mload(0x40)\n      dup1\n      swap2\n      sub\n      swap1\n      return\n        /* \"Test.sol\":191:290  function getBalance()public view  returns (uint256) {... */\n    tag_9:\n        /* \"Test.sol\":234:241  uint256 */\n      0x00\n        /* \"Test.sol\":261:282  address(this).balance */\n      selfbalance\n        /* \"Test.sol\":254:282  return address(this).balance */\n      swap1\n      pop\n        /* \"Test.sol\":191:290  function getBalance()public view  returns (uint256) {... */\n      swap1\n      jump\t// out\n        /* \"Test.sol\":554:651  function transfer(address payable  _targetAddr) public {... */\n    tag_16:\n        /* \"Test.sol\":620:631  _targetAddr */\n      dup1\n        /* \"Test.sol\":620:640  _targetAddr.transfer */\n      0xffffffffffffffffffffffffffffffffffffffff\n      and\n        /* \"Test.sol\":620:643  _targetAddr.transfer(1) */\n      0x08fc\n        /* \"Test.sol\":641:642  1 */\n      0x01\n        /* \"Test.sol\":620:643  _targetAddr.transfer(1) */\n      swap1\n      dup2\n      iszero\n      mul\n      swap1\n      mload(0x40)\n      0x00\n      mload(0x40)\n      dup1\n      dup4\n      sub\n      dup2\n      dup6\n      dup9\n      dup9\n      call\n      swap4\n      pop\n      pop\n      pop\n      pop\n      iszero\n      dup1\n      iszero\n      tag_33\n      jumpi\n      returndatasize\n      0x00\n      dup1\n      returndatacopy\n      revert(0x00, returndatasize)\n    tag_33:\n      pop\n        /* \"Test.sol\":554:651  function transfer(address payable  _targetAddr) public {... */\n      pop\n      jump\t// out\n        /* \"Test.sol\":298:400  function getCodeHash() public  view  returns (bytes32){... */\n    tag_19:\n        /* \"Test.sol\":344:351  bytes32 */\n      0x00\n        /* \"Test.sol\":378:382  this */\n      address\n        /* \"Test.sol\":370:392  address(this).codehash */\n      0xffffffffffffffffffffffffffffffffffffffff\n      and\n      extcodehash\n        /* \"Test.sol\":363:392  return address(this).codehash */\n      swap1\n      pop\n        /* \"Test.sol\":298:400  function getCodeHash() public  view  returns (bytes32){... */\n      swap1\n      jump\t// out\n        /* \"Test.sol\":408:546  function addBalance()public  payable returns (uint256) {... */\n    tag_23:\n        /* \"Test.sol\":454:461  uint256 */\n      0x00\n        /* \"Test.sol\":494:495  0 */\n      dup1\n        /* \"Test.sol\":482:491  msg.value */\n      callvalue\n        /* \"Test.sol\":482:495  msg.value > 0 */\n      gt\n        /* \"Test.sol\":474:511  require(msg.value > 0, \" money fail\") */\n      tag_36\n      jumpi\n      mload(0x40)\n      0x08c379a000000000000000000000000000000000000000000000000000000000\n      dup2\n      mstore\n      0x04\n      add\n      tag_37\n      swap1\n      tag_38\n      jump\t// in\n    tag_37:\n      mload(0x40)\n      dup1\n      swap2\n      sub\n      swap1\n      revert\n    tag_36:\n        /* \"Test.sol\":529:538  msg.value */\n      callvalue\n        /* \"Test.sol\":522:538  return msg.value */\n      swap1\n      pop\n        /* \"Test.sol\":408:546  function addBalance()public  payable returns (uint256) {... */\n      swap1\n      jump\t// out\n        /* \"Test.sol\":83:183  function getCode() public view  returns ( bytes memory ){... */\n    tag_27:\n        /* \"Test.sol\":125:137  bytes memory */\n      0x60\n        /* \"Test.sol\":165:169  this */\n      address\n        /* \"Test.sol\":157:175  address(this).code */\n      0xffffffffffffffffffffffffffffffffffffffff\n      and\n      dup1\n      extcodesize\n      dup1\n      0x20\n      add\n      mload(0x40)\n      swap1\n      dup2\n      add\n      0x40\n      mstore\n      dup2\n      dup2\n      mstore\n      0x00\n      swap1\n      dup1\n      0x20\n      add\n      swap1\n      swap4\n      extcodecopy\n        /* \"Test.sol\":150:175  return address(this).code */\n      swap1\n      pop\n        /* \"Test.sol\":83:183  function getCode() public view  returns ( bytes memory ){... */\n      swap1\n      jump\t// out\n        /* \"#utility.yul\":7:84   */\n    tag_40:\n        /* \"#utility.yul\":44:51   */\n      0x00\n        /* \"#utility.yul\":73:78   */\n      dup2\n        /* \"#utility.yul\":62:78   */\n      swap1\n      pop\n        /* \"#utility.yul\":7:84   */\n      swap2\n      swap1\n      pop\n      jump\t// out\n        /* \"#utility.yul\":90:208   */\n    tag_41:\n        /* \"#utility.yul\":177:201   */\n      tag_62\n        /* \"#utility.yul\":195:200   */\n      dup2\n        /* \"#utility.yul\":177:201   */\n      tag_40\n      jump\t// in\n    tag_62:\n        /* \"#utility.yul\":172:175   */\n      dup3\n        /* \"#utility.yul\":165:202   */\n      mstore\n        /* \"#utility.yul\":90:208   */\n      pop\n      pop\n      jump\t// out\n        /* \"#utility.yul\":214:436   */\n    tag_11:\n        /* \"#utility.yul\":307:311   */\n      0x00\n        /* \"#utility.yul\":345:347   */\n      0x20\n        /* \"#utility.yul\":334:343   */\n      dup3\n        /* \"#utility.yul\":330:348   */\n      add\n        /* \"#utility.yul\":322:348   */\n      swap1\n      pop\n        /* \"#utility.yul\":358:429   */\n      tag_64\n        /* \"#utility.yul\":426:427   */\n      0x00\n        /* \"#utility.yul\":415:424   */\n      dup4\n        /* \"#utility.yul\":411:428   */\n      add\n        /* \"#utility.yul\":402:408   */\n      dup5\n        /* \"#utility.yul\":358:429   */\n      tag_41\n      jump\t// in\n    tag_64:\n        /* \"#utility.yul\":214:436   */\n      swap3\n      swap2\n      pop\n      pop\n      jump\t// out\n        /* \"#utility.yul\":523:640   */\n    tag_43:\n        /* \"#utility.yul\":632:633   */\n      0x00\n        /* \"#utility.yul\":629:630   */\n      dup1\n        /* \"#utility.yul\":622:634   */\n      revert\n        /* \"#utility.yul\":769:895   */\n    tag_45:\n        /* \"#utility.yul\":806:813   */\n      0x00\n        /* \"#utility.yul\":846:888   */\n      0xffffffffffffffffffffffffffffffffffffffff\n        /* \"#utility.yul\":839:844   */\n      dup3\n        /* \"#utility.yul\":835:889   */\n      and\n        /* \"#utility.yul\":824:889   */\n      swap1\n      pop\n        /* \"#utility.yul\":769:895   */\n      swap2\n      swap1\n      pop\n      jump\t// out\n        /* \"#utility.yul\":901:1005   */\n    tag_46:\n        /* \"#utility.yul\":946:953   */\n      0x00\n        /* \"#utility.yul\":975:999   */\n      tag_70\n        /* \"#utility.yul\":993:998   */\n      dup3\n        /* \"#utility.yul\":975:999   */\n      tag_45\n      jump\t// in\n    tag_70:\n        /* \"#utility.yul\":964:999   */\n      swap1\n      pop\n        /* \"#utility.yul\":901:1005   */\n      swap2\n      swap1\n      pop\n      jump\t// out\n        /* \"#utility.yul\":1011:1149   */\n    tag_47:\n        /* \"#utility.yul\":1092:1124   */\n      tag_72\n        /* \"#utility.yul\":1118:1123   */\n      dup2\n        /* \"#utility.yul\":1092:1124   */\n      tag_46\n      jump\t// in\n    tag_72:\n        /* \"#utility.yul\":1085:1090   */\n      dup2\n        /* \"#utility.yul\":1082:1125   */\n      eq\n        /* \"#utility.yul\":1072:1143   */\n      tag_73\n      jumpi\n        /* \"#utility.yul\":1139:1140   */\n      0x00\n        /* \"#utility.yul\":1136:1137   */\n      dup1\n        /* \"#utility.yul\":1129:1141   */\n      revert\n        /* \"#utility.yul\":1072:1143   */\n    tag_73:\n        /* \"#utility.yul\":1011:1149   */\n      pop\n      jump\t// out\n        /* \"#utility.yul\":1155:1310   */\n    tag_48:\n        /* \"#utility.yul\":1209:1214   */\n      0x00\n        /* \"#utility.yul\":1247:1253   */\n      dup2\n        /* \"#utility.yul\":1234:1254   */\n      calldataload\n        /* \"#utility.yul\":1225:1254   */\n      swap1\n      pop\n        /* \"#utility.yul\":1263:1304   */\n      tag_75\n        /* \"#utility.yul\":1298:1303   */\n      dup2\n        /* \"#utility.yul\":1263:1304   */\n      tag_47\n      jump\t// in\n    tag_75:\n        /* \"#utility.yul\":1155:1310   */\n      swap3\n      swap2\n      pop\n      pop\n      jump\t// out\n        /* \"#utility.yul\":1316:1661   */\n    tag_15:\n        /* \"#utility.yul\":1383:1389   */\n      0x00\n        /* \"#utility.yul\":1432:1434   */\n      0x20\n        /* \"#utility.yul\":1420:1429   */\n      dup3\n        /* \"#utility.yul\":1411:1418   */\n      dup5\n        /* \"#utility.yul\":1407:1430   */\n      sub\n        /* \"#utility.yul\":1403:1435   */\n      slt\n        /* \"#utility.yul\":1400:1519   */\n      iszero\n      tag_77\n      jumpi\n        /* \"#utility.yul\":1438:1517   */\n      tag_78\n      tag_43\n      jump\t// in\n    tag_78:\n        /* \"#utility.yul\":1400:1519   */\n    tag_77:\n        /* \"#utility.yul\":1558:1559   */\n      0x00\n        /* \"#utility.yul\":1583:1644   */\n      tag_79\n        /* \"#utility.yul\":1636:1643   */\n      dup5\n        /* \"#utility.yul\":1627:1633   */\n      dup3\n        /* \"#utility.yul\":1616:1625   */\n      dup6\n        /* \"#utility.yul\":1612:1634   */\n      add\n        /* \"#utility.yul\":1583:1644   */\n      tag_48\n      jump\t// in\n    tag_79:\n        /* \"#utility.yul\":1573:1644   */\n      swap2\n      pop\n        /* \"#utility.yul\":1529:1654   */\n      pop\n        /* \"#utility.yul\":1316:1661   */\n      swap3\n      swap2\n      pop\n      pop\n      jump\t// out\n        /* \"#utility.yul\":1667:1744   */\n    tag_49:\n        /* \"#utility.yul\":1704:1711   */\n      0x00\n        /* \"#utility.yul\":1733:1738   */\n      dup2\n        /* \"#utility.yul\":1722:1738   */\n      swap1\n      pop\n        /* \"#utility.yul\":1667:1744   */\n      swap2\n      swap1\n      pop\n      jump\t// out\n        /* \"#utility.yul\":1750:1868   */\n    tag_50:\n        /* \"#utility.yul\":1837:1861   */\n      tag_82\n        /* \"#utility.yul\":1855:1860   */\n      dup2\n        /* \"#utility.yul\":1837:1861   */\n      tag_49\n      jump\t// in\n    tag_82:\n        /* \"#utility.yul\":1832:1835   */\n      dup3\n        /* \"#utility.yul\":1825:1862   */\n      mstore\n        /* \"#utility.yul\":1750:1868   */\n      pop\n      pop\n      jump\t// out\n        /* \"#utility.yul\":1874:2096   */\n    tag_21:\n        /* \"#utility.yul\":1967:1971   */\n      0x00\n        /* \"#utility.yul\":2005:2007   */\n      0x20\n        /* \"#utility.yul\":1994:2003   */\n      dup3\n        /* \"#utility.yul\":1990:2008   */\n      add\n        /* \"#utility.yul\":1982:2008   */\n      swap1\n      pop\n        /* \"#utility.yul\":2018:2089   */\n      tag_84\n        /* \"#utility.yul\":2086:2087   */\n      0x00\n        /* \"#utility.yul\":2075:2084   */\n      dup4\n        /* \"#utility.yul\":2071:2088   */\n      add\n        /* \"#utility.yul\":2062:2068   */\n      dup5\n        /* \"#utility.yul\":2018:2089   */\n      tag_50\n      jump\t// in\n    tag_84:\n        /* \"#utility.yul\":1874:2096   */\n      swap3\n      swap2\n      pop\n      pop\n      jump\t// out\n        /* \"#utility.yul\":2102:2200   */\n    tag_51:\n        /* \"#utility.yul\":2153:2159   */\n      0x00\n        /* \"#utility.yul\":2187:2192   */\n      dup2\n        /* \"#utility.yul\":2181:2193   */\n      mload\n        /* \"#utility.yul\":2171:2193   */\n      swap1\n      pop\n        /* \"#utility.yul\":2102:2200   */\n      swap2\n      swap1\n      pop\n      jump\t// out\n        /* \"#utility.yul\":2206:2374   */\n    tag_52:\n        /* \"#utility.yul\":2289:2300   */\n      0x00\n        /* \"#utility.yul\":2323:2329   */\n      dup3\n        /* \"#utility.yul\":2318:2321   */\n      dup3\n        /* \"#utility.yul\":2311:2330   */\n      mstore\n        /* \"#utility.yul\":2363:2367   */\n      0x20\n        /* \"#utility.yul\":2358:2361   */\n      dup3\n        /* \"#utility.yul\":2354:2368   */\n      add\n        /* \"#utility.yul\":2339:2368   */\n      swap1\n      pop\n        /* \"#utility.yul\":2206:2374   */\n      swap3\n      swap2\n      pop\n      pop\n      jump\t// out\n        /* \"#utility.yul\":2380:2626   */\n    tag_53:\n        /* \"#utility.yul\":2461:2462   */\n      0x00\n        /* \"#utility.yul\":2471:2584   */\n    tag_88:\n        /* \"#utility.yul\":2485:2491   */\n      dup4\n        /* \"#utility.yul\":2482:2483   */\n      dup2\n        /* \"#utility.yul\":2479:2492   */\n      lt\n        /* \"#utility.yul\":2471:2584   */\n      iszero\n      tag_90\n      jumpi\n        /* \"#utility.yul\":2570:2571   */\n      dup1\n        /* \"#utility.yul\":2565:2568   */\n      dup3\n        /* \"#utility.yul\":2561:2572   */\n      add\n        /* \"#utility.yul\":2555:2573   */\n      mload\n        /* \"#utility.yul\":2551:2552   */\n      dup2\n        /* \"#utility.yul\":2546:2549   */\n      dup5\n        /* \"#utility.yul\":2542:2553   */\n      add\n        /* \"#utility.yul\":2535:2574   */\n      mstore\n        /* \"#utility.yul\":2507:2509   */\n      0x20\n        /* \"#utility.yul\":2504:2505   */\n      dup2\n        /* \"#utility.yul\":2500:2510   */\n      add\n        /* \"#utility.yul\":2495:2510   */\n      swap1\n      pop\n        /* \"#utility.yul\":2471:2584   */\n      jump(tag_88)\n    tag_90:\n        /* \"#utility.yul\":2618:2619   */\n      0x00\n        /* \"#utility.yul\":2609:2615   */\n      dup5\n        /* \"#utility.yul\":2604:2607   */\n      dup5\n        /* \"#utility.yul\":2600:2616   */\n      add\n        /* \"#utility.yul\":2593:2620   */\n      mstore\n        /* \"#utility.yul\":2442:2626   */\n      pop\n        /* \"#utility.yul\":2380:2626   */\n      pop\n      pop\n      pop\n      jump\t// out\n        /* \"#utility.yul\":2632:2734   */\n    tag_54:\n        /* \"#utility.yul\":2673:2679   */\n      0x00\n        /* \"#utility.yul\":2724:2726   */\n      0x1f\n        /* \"#utility.yul\":2720:2727   */\n      not\n        /* \"#utility.yul\":2715:2717   */\n      0x1f\n        /* \"#utility.yul\":2708:2713   */\n      dup4\n        /* \"#utility.yul\":2704:2718   */\n      add\n        /* \"#utility.yul\":2700:2728   */\n      and\n        /* \"#utility.yul\":2690:2728   */\n      swap1\n      pop\n        /* \"#utility.yul\":2632:2734   */\n      swap2\n      swap1\n      pop\n      jump\t// out\n        /* \"#utility.yul\":2740:3113   */\n    tag_55:\n        /* \"#utility.yul\":2826:2829   */\n      0x00\n        /* \"#utility.yul\":2854:2892   */\n      tag_93\n        /* \"#utility.yul\":2886:2891   */\n      dup3\n        /* \"#utility.yul\":2854:2892   */\n      tag_51\n      jump\t// in\n    tag_93:\n        /* \"#utility.yul\":2908:2978   */\n      tag_94\n        /* \"#utility.yul\":2971:2977   */\n      dup2\n        /* \"#utility.yul\":2966:2969   */\n      dup6\n        /* \"#utility.yul\":2908:2978   */\n      tag_52\n      jump\t// in\n    tag_94:\n        /* \"#utility.yul\":2901:2978   */\n      swap4\n      pop\n        /* \"#utility.yul\":2987:3052   */\n      tag_95\n        /* \"#utility.yul\":3045:3051   */\n      dup2\n        /* \"#utility.yul\":3040:3043   */\n      dup6\n        /* \"#utility.yul\":3033:3037   */\n      0x20\n        /* \"#utility.yul\":3026:3031   */\n      dup7\n        /* \"#utility.yul\":3022:3038   */\n      add\n        /* \"#utility.yul\":2987:3052   */\n      tag_53\n      jump\t// in\n    tag_95:\n        /* \"#utility.yul\":3077:3106   */\n      tag_96\n        /* \"#utility.yul\":3099:3105   */\n      dup2\n        /* \"#utility.yul\":3077:3106   */\n      tag_54\n      jump\t// in\n    tag_96:\n        /* \"#utility.yul\":3072:3075   */\n      dup5\n        /* \"#utility.yul\":3068:3107   */\n      add\n        /* \"#utility.yul\":3061:3107   */\n      swap2\n      pop\n        /* \"#utility.yul\":2830:3113   */\n      pop\n        /* \"#utility.yul\":2740:3113   */\n      swap3\n      swap2\n      pop\n      pop\n      jump\t// out\n        /* \"#utility.yul\":3119:3428   */\n    tag_29:\n        /* \"#utility.yul\":3230:3234   */\n      0x00\n        /* \"#utility.yul\":3268:3270   */\n      0x20\n        /* \"#utility.yul\":3257:3266   */\n      dup3\n        /* \"#utility.yul\":3253:3271   */\n      add\n        /* \"#utility.yul\":3245:3271   */\n      swap1\n      pop\n        /* \"#utility.yul\":3317:3326   */\n      dup2\n        /* \"#utility.yul\":3311:3315   */\n      dup2\n        /* \"#utility.yul\":3307:3327   */\n      sub\n        /* \"#utility.yul\":3303:3304   */\n      0x00\n        /* \"#utility.yul\":3292:3301   */\n      dup4\n        /* \"#utility.yul\":3288:3305   */\n      add\n        /* \"#utility.yul\":3281:3328   */\n      mstore\n        /* \"#utility.yul\":3345:3421   */\n      tag_98\n        /* \"#utility.yul\":3416:3420   */\n      dup2\n        /* \"#utility.yul\":3407:3413   */\n      dup5\n        /* \"#utility.yul\":3345:3421   */\n      tag_55\n      jump\t// in\n    tag_98:\n        /* \"#utility.yul\":3337:3421   */\n      swap1\n      pop\n        /* \"#utility.yul\":3119:3428   */\n      swap3\n      swap2\n      pop\n      pop\n      jump\t// out\n        /* \"#utility.yul\":3434:3603   */\n    tag_56:\n        /* \"#utility.yul\":3518:3529   */\n      0x00\n        /* \"#utility.yul\":3552:3558   */\n      dup3\n        /* \"#utility.yul\":3547:3550   */\n      dup3\n        /* \"#utility.yul\":3540:3559   */\n      mstore\n        /* \"#utility.yul\":3592:3596   */\n      0x20\n        /* \"#utility.yul\":3587:3590   */\n      dup3\n        /* \"#utility.yul\":3583:3597   */\n      add\n        /* \"#utility.yul\":3568:3597   */\n      swap1\n      pop\n        /* \"#utility.yul\":3434:3603   */\n      swap3\n      swap2\n      pop\n      pop\n      jump\t// out\n        /* \"#utility.yul\":3609:3770   */\n    tag_57:\n        /* \"#utility.yul\":3749:3762   */\n      0x206d6f6e6579206661696c000000000000000000000000000000000000000000\n        /* \"#utility.yul\":3745:3746   */\n      0x00\n        /* \"#utility.yul\":3737:3743   */\n      dup3\n        /* \"#utility.yul\":3733:3747   */\n      add\n        /* \"#utility.yul\":3726:3763   */\n      mstore\n        /* \"#utility.yul\":3609:3770   */\n      pop\n      jump\t// out\n        /* \"#utility.yul\":3776:4142   */\n    tag_58:\n        /* \"#utility.yul\":3918:3921   */\n      0x00\n        /* \"#utility.yul\":3939:4006   */\n      tag_102\n        /* \"#utility.yul\":4003:4005   */\n      0x0b\n        /* \"#utility.yul\":3998:4001   */\n      dup4\n        /* \"#utility.yul\":3939:4006   */\n      tag_56\n      jump\t// in\n    tag_102:\n        /* \"#utility.yul\":3932:4006   */\n      swap2\n      pop\n        /* \"#utility.yul\":4015:4108   */\n      tag_103\n        /* \"#utility.yul\":4104:4107   */\n      dup3\n        /* \"#utility.yul\":4015:4108   */\n      tag_57\n      jump\t// in\n    tag_103:\n        /* \"#utility.yul\":4133:4135   */\n      0x20\n        /* \"#utility.yul\":4128:4131   */\n      dup3\n        /* \"#utility.yul\":4124:4136   */\n      add\n        /* \"#utility.yul\":4117:4136   */\n      swap1\n      pop\n        /* \"#utility.yul\":3776:4142   */\n      swap2\n      swap1\n      pop\n      jump\t// out\n        /* \"#utility.yul\":4148:4567   */\n    tag_38:\n        /* \"#utility.yul\":4314:4318   */\n      0x00\n        /* \"#utility.yul\":4352:4354   */\n      0x20\n        /* \"#utility.yul\":4341:4350   */\n      dup3\n        /* \"#utility.yul\":4337:4355   */\n      add\n        /* \"#utility.yul\":4329:4355   */\n      swap1\n      pop\n        /* \"#utility.yul\":4401:4410   */\n      dup2\n        /* \"#utility.yul\":4395:4399   */\n      dup2\n        /* \"#utility.yul\":4391:4411   */\n      sub\n        /* \"#utility.yul\":4387:4388   */\n      0x00\n        /* \"#utility.yul\":4376:4385   */\n      dup4\n        /* \"#utility.yul\":4372:4389   */\n      add\n        /* \"#utility.yul\":4365:4412   */\n      mstore\n        /* \"#utility.yul\":4429:4560   */\n      tag_105\n        /* \"#utility.yul\":4555:4559   */\n      dup2\n        /* \"#utility.yul\":4429:4560   */\n      tag_58\n      jump\t// in\n    tag_105:\n        /* \"#utility.yul\":4421:4560   */\n      swap1\n      pop\n        /* \"#utility.yul\":4148:4567   */\n      swap2\n      swap1\n      pop\n      jump\t// out\n\n    auxdata: 0xa2646970667358221220bb41d52b2d9f96121244f2f373161b9fa95ed5fd0c264fd66ae90a1e79a7c8cf64736f6c63430008160033\n}\n",
				"bytecode": {
					"linkReferences": {},
					"object": "608060405234801561000f575f80fd5b506104438061001d5f395ff3fe608060405260043610610049575f3560e01c806312065fe01461004d5780631a6952301461007757806383dd41c61461009f578063b163cc38146100c9578063ea879634146100e7575b5f80fd5b348015610058575f80fd5b50610061610111565b60405161006e9190610218565b60405180910390f35b348015610082575f80fd5b5061009d6004803603810190610098919061028f565b610118565b005b3480156100aa575f80fd5b506100b3610160565b6040516100c091906102d2565b60405180910390f35b6100d161017e565b6040516100de9190610218565b60405180910390f35b3480156100f2575f80fd5b506100fb6101c7565b6040516101089190610375565b60405180910390f35b5f47905090565b8073ffffffffffffffffffffffffffffffffffffffff166108fc600190811502906040515f60405180830381858888f1935050505015801561015c573d5f803e3d5ffd5b5050565b5f3073ffffffffffffffffffffffffffffffffffffffff163f905090565b5f8034116101c1576040517f08c379a00000000000000000000000000000000000000000000000000000000081526004016101b8906103ef565b60405180910390fd5b34905090565b60603073ffffffffffffffffffffffffffffffffffffffff16803b806020016040519081016040528181525f908060200190933c905090565b5f819050919050565b61021281610200565b82525050565b5f60208201905061022b5f830184610209565b92915050565b5f80fd5b5f73ffffffffffffffffffffffffffffffffffffffff82169050919050565b5f61025e82610235565b9050919050565b61026e81610254565b8114610278575f80fd5b50565b5f8135905061028981610265565b92915050565b5f602082840312156102a4576102a3610231565b5b5f6102b18482850161027b565b91505092915050565b5f819050919050565b6102cc816102ba565b82525050565b5f6020820190506102e55f8301846102c3565b92915050565b5f81519050919050565b5f82825260208201905092915050565b5f5b83811015610322578082015181840152602081019050610307565b5f8484015250505050565b5f601f19601f8301169050919050565b5f610347826102eb565b61035181856102f5565b9350610361818560208601610305565b61036a8161032d565b840191505092915050565b5f6020820190508181035f83015261038d818461033d565b905092915050565b5f82825260208201905092915050565b7f206d6f6e6579206661696c0000000000000000000000000000000000000000005f82015250565b5f6103d9600b83610395565b91506103e4826103a5565b602082019050919050565b5f6020820190508181035f830152610406816103cd565b905091905056fea2646970667358221220bb41d52b2d9f96121244f2f373161b9fa95ed5fd0c264fd66ae90a1e79a7c8cf64736f6c63430008160033",
					"opcodes": "PUSH1 0x80 PUSH1 0x40 MSTORE CALLVALUE DUP1 ISZERO PUSH2 0xF JUMPI PUSH0 DUP1 REVERT JUMPDEST POP PUSH2 0x443 DUP1 PUSH2 0x1D PUSH0 CODECOPY PUSH0 RETURN INVALID PUSH1 0x80 PUSH1 0x40 MSTORE PUSH1 0x4 CALLDATASIZE LT PUSH2 0x49 JUMPI PUSH0 CALLDATALOAD PUSH1 0xE0 SHR DUP1 PUSH4 0x12065FE0 EQ PUSH2 0x4D JUMPI DUP1 PUSH4 0x1A695230 EQ PUSH2 0x77 JUMPI DUP1 PUSH4 0x83DD41C6 EQ PUSH2 0x9F JUMPI DUP1 PUSH4 0xB163CC38 EQ PUSH2 0xC9 JUMPI DUP1 PUSH4 0xEA879634 EQ PUSH2 0xE7 JUMPI JUMPDEST PUSH0 DUP1 REVERT JUMPDEST CALLVALUE DUP1 ISZERO PUSH2 0x58 JUMPI PUSH0 DUP1 REVERT JUMPDEST POP PUSH2 0x61 PUSH2 0x111 JUMP JUMPDEST PUSH1 0x40 MLOAD PUSH2 0x6E SWAP2 SWAP1 PUSH2 0x218 JUMP JUMPDEST PUSH1 0x40 MLOAD DUP1 SWAP2 SUB SWAP1 RETURN JUMPDEST CALLVALUE DUP1 ISZERO PUSH2 0x82 JUMPI PUSH0 DUP1 REVERT JUMPDEST POP PUSH2 0x9D PUSH1 0x4 DUP1 CALLDATASIZE SUB DUP2 ADD SWAP1 PUSH2 0x98 SWAP2 SWAP1 PUSH2 0x28F JUMP JUMPDEST PUSH2 0x118 JUMP JUMPDEST STOP JUMPDEST CALLVALUE DUP1 ISZERO PUSH2 0xAA JUMPI PUSH0 DUP1 REVERT JUMPDEST POP PUSH2 0xB3 PUSH2 0x160 JUMP JUMPDEST PUSH1 0x40 MLOAD PUSH2 0xC0 SWAP2 SWAP1 PUSH2 0x2D2 JUMP JUMPDEST PUSH1 0x40 MLOAD DUP1 SWAP2 SUB SWAP1 RETURN JUMPDEST PUSH2 0xD1 PUSH2 0x17E JUMP JUMPDEST PUSH1 0x40 MLOAD PUSH2 0xDE SWAP2 SWAP1 PUSH2 0x218 JUMP JUMPDEST PUSH1 0x40 MLOAD DUP1 SWAP2 SUB SWAP1 RETURN JUMPDEST CALLVALUE DUP1 ISZERO PUSH2 0xF2 JUMPI PUSH0 DUP1 REVERT JUMPDEST POP PUSH2 0xFB PUSH2 0x1C7 JUMP JUMPDEST PUSH1 0x40 MLOAD PUSH2 0x108 SWAP2 SWAP1 PUSH2 0x375 JUMP JUMPDEST PUSH1 0x40 MLOAD DUP1 SWAP2 SUB SWAP1 RETURN JUMPDEST PUSH0 SELFBALANCE SWAP1 POP SWAP1 JUMP JUMPDEST DUP1 PUSH20 0xFFFFFFFFFFFFFFFFFFFFFFFFFFFFFFFFFFFFFFFF AND PUSH2 0x8FC PUSH1 0x1 SWAP1 DUP2 ISZERO MUL SWAP1 PUSH1 0x40 MLOAD PUSH0 PUSH1 0x40 MLOAD DUP1 DUP4 SUB DUP2 DUP6 DUP9 DUP9 CALL SWAP4 POP POP POP POP ISZERO DUP1 ISZERO PUSH2 0x15C JUMPI RETURNDATASIZE PUSH0 DUP1 RETURNDATACOPY RETURNDATASIZE PUSH0 REVERT JUMPDEST POP POP JUMP JUMPDEST PUSH0 ADDRESS PUSH20 0xFFFFFFFFFFFFFFFFFFFFFFFFFFFFFFFFFFFFFFFF AND EXTCODEHASH SWAP1 POP SWAP1 JUMP JUMPDEST PUSH0 DUP1 CALLVALUE GT PUSH2 0x1C1 JUMPI PUSH1 0x40 MLOAD PUSH32 0x8C379A000000000000000000000000000000000000000000000000000000000 DUP2 MSTORE PUSH1 0x4 ADD PUSH2 0x1B8 SWAP1 PUSH2 0x3EF JUMP JUMPDEST PUSH1 0x40 MLOAD DUP1 SWAP2 SUB SWAP1 REVERT JUMPDEST CALLVALUE SWAP1 POP SWAP1 JUMP JUMPDEST PUSH1 0x60 ADDRESS PUSH20 0xFFFFFFFFFFFFFFFFFFFFFFFFFFFFFFFFFFFFFFFF AND DUP1 EXTCODESIZE DUP1 PUSH1 0x20 ADD PUSH1 0x40 MLOAD SWAP1 DUP2 ADD PUSH1 0x40 MSTORE DUP2 DUP2 MSTORE PUSH0 SWAP1 DUP1 PUSH1 0x20 ADD SWAP1 SWAP4 EXTCODECOPY SWAP1 POP SWAP1 JUMP JUMPDEST PUSH0 DUP2 SWAP1 POP SWAP2 SWAP1 POP JUMP JUMPDEST PUSH2 0x212 DUP2 PUSH2 0x200 JUMP JUMPDEST DUP3 MSTORE POP POP JUMP JUMPDEST PUSH0 PUSH1 0x20 DUP3 ADD SWAP1 POP PUSH2 0x22B PUSH0 DUP4 ADD DUP5 PUSH2 0x209 JUMP JUMPDEST SWAP3 SWAP2 POP POP JUMP JUMPDEST PUSH0 DUP1 REVERT JUMPDEST PUSH0 PUSH20 0xFFFFFFFFFFFFFFFFFFFFFFFFFFFFFFFFFFFFFFFF DUP3 AND SWAP1 POP SWAP2 SWAP1 POP JUMP JUMPDEST PUSH0 PUSH2 0x25E DUP3 PUSH2 0x235 JUMP JUMPDEST SWAP1 POP SWAP2 SWAP1 POP JUMP JUMPDEST PUSH2 0x26E DUP2 PUSH2 0x254 JUMP JUMPDEST DUP2 EQ PUSH2 0x278 JUMPI PUSH0 DUP1 REVERT JUMPDEST POP JUMP JUMPDEST PUSH0 DUP2 CALLDATALOAD SWAP1 POP PUSH2 0x289 DUP2 PUSH2 0x265 JUMP JUMPDEST SWAP3 SWAP2 POP POP JUMP JUMPDEST PUSH0 PUSH1 0x20 DUP3 DUP5 SUB SLT ISZERO PUSH2 0x2A4 JUMPI PUSH2 0x2A3 PUSH2 0x231 JUMP JUMPDEST JUMPDEST PUSH0 PUSH2 0x2B1 DUP5 DUP3 DUP6 ADD PUSH2 0x27B JUMP JUMPDEST SWAP2 POP POP SWAP3 SWAP2 POP POP JUMP JUMPDEST PUSH0 DUP2 SWAP1 POP SWAP2 SWAP1 POP JUMP JUMPDEST PUSH2 0x2CC DUP2 PUSH2 0x2BA JUMP JUMPDEST DUP3 MSTORE POP POP JUMP JUMPDEST PUSH0 PUSH1 0x20 DUP3 ADD SWAP1 POP PUSH2 0x2E5 PUSH0 DUP4 ADD DUP5 PUSH2 0x2C3 JUMP JUMPDEST SWAP3 SWAP2 POP POP JUMP JUMPDEST PUSH0 DUP2 MLOAD SWAP1 POP SWAP2 SWAP1 POP JUMP JUMPDEST PUSH0 DUP3 DUP3 MSTORE PUSH1 0x20 DUP3 ADD SWAP1 POP SWAP3 SWAP2 POP POP JUMP JUMPDEST PUSH0 JUMPDEST DUP4 DUP2 LT ISZERO PUSH2 0x322 JUMPI DUP1 DUP3 ADD MLOAD DUP2 DUP5 ADD MSTORE PUSH1 0x20 DUP2 ADD SWAP1 POP PUSH2 0x307 JUMP JUMPDEST PUSH0 DUP5 DUP5 ADD MSTORE POP POP POP POP JUMP JUMPDEST PUSH0 PUSH1 0x1F NOT PUSH1 0x1F DUP4 ADD AND SWAP1 POP SWAP2 SWAP1 POP JUMP JUMPDEST PUSH0 PUSH2 0x347 DUP3 PUSH2 0x2EB JUMP JUMPDEST PUSH2 0x351 DUP2 DUP6 PUSH2 0x2F5 JUMP JUMPDEST SWAP4 POP PUSH2 0x361 DUP2 DUP6 PUSH1 0x20 DUP7 ADD PUSH2 0x305 JUMP JUMPDEST PUSH2 0x36A DUP2 PUSH2 0x32D JUMP JUMPDEST DUP5 ADD SWAP2 POP POP SWAP3 SWAP2 POP POP JUMP JUMPDEST PUSH0 PUSH1 0x20 DUP3 ADD SWAP1 POP DUP2 DUP2 SUB PUSH0 DUP4 ADD MSTORE PUSH2 0x38D DUP2 DUP5 PUSH2 0x33D JUMP JUMPDEST SWAP1 POP SWAP3 SWAP2 POP POP JUMP JUMPDEST PUSH0 DUP3 DUP3 MSTORE PUSH1 0x20 DUP3 ADD SWAP1 POP SWAP3 SWAP2 POP POP JUMP JUMPDEST PUSH32 0x206D6F6E6579206661696C000000000000000000000000000000000000000000 PUSH0 DUP3 ADD MSTORE POP JUMP JUMPDEST PUSH0 PUSH2 0x3D9 PUSH1 0xB DUP4 PUSH2 0x395 JUMP JUMPDEST SWAP2 POP PUSH2 0x3E4 DUP3 PUSH2 0x3A5 JUMP JUMPDEST PUSH1 0x20 DUP3 ADD SWAP1 POP SWAP2 SWAP1 POP JUMP JUMPDEST PUSH0 PUSH1 0x20 DUP3 ADD SWAP1 POP DUP2 DUP2 SUB PUSH0 DUP4 ADD MSTORE PUSH2 0x406 DUP2 PUSH2 0x3CD JUMP JUMPDEST SWAP1 POP SWAP2 SWAP1 POP JUMP INVALID LOG2 PUSH5 0x6970667358 0x22 SLT KECCAK256 0xBB COINBASE 0xD5 0x2B 0x2D SWAP16 SWAP7 SLT SLT PREVRANDAO CALLCODE RETURN PUSH20 0x161B9FA95ED5FD0C264FD66AE90A1E79A7C8CF64 PUSH20 0x6F6C634300081600330000000000000000000000 "
				},
				"gasEstimates": {
					"creation": {
						"codeDepositCost": "218200",
						"executionCost": "261",
						"totalCost": "218461"
					},
					"external": {
						"addBalance()": "471",
						"getBalance()": "312",
						"getCode()": "infinite",
						"getCodeHash()": "2959",
						"transfer(address)": "infinite"
					}
				},
				"methodIdentifiers": {
					"addBalance()": "b163cc38",
					"getBalance()": "12065fe0",
					"getCode()": "ea879634",
					"getCodeHash()": "83dd41c6",
					"transfer(address)": "1a695230"
				}
			},
			"storageLayout": {
				"storage": [],
				"types": null
			},
			"userdoc": {
				"kind": "user",
				"methods": {},
				"version": 1
			}
		}
	}
}