{
	"Function.sol": {
		"XYZ": {
			"abi": [
				{
					"inputs": [],
					"name": "callFunc",
					"outputs": [
						{
							"internalType": "uint256",
							"name": "",
							"type": "uint256"
						}
					],
					"stateMutability": "pure",
					"type": "function"
				},
				{
					"inputs": [
						{
							"internalType": "uint256",
							"name": "x",
							"type": "uint256"
						},
						{
							"internalType": "uint256",
							"name": "y",
							"type": "uint256"
						},
						{
							"internalType": "uint256",
							"name": "z",
							"type": "uint256"
						},
						{
							"internalType": "address",
							"name": "a",
							"type": "address"
						},
						{
							"internalType": "bool",
							"name": "b",
							"type": "bool"
						},
						{
							"internalType": "string",
							"name": "c",
							"type": "string"
						}
					],
					"name": "someFuncWithManyInputs",
					"outputs": [
						{
							"internalType": "uint256",
							"name": "",
							"type": "uint256"
						}
					],
					"stateMutability": "pure",
					"type": "function"
				}
			],
			"devdoc": {
				"kind": "dev",
				"methods": {},
				"version": 1
			},
			"evm": {
				"assembly": "    /* \"Function.sol\":892:1251  contract XYZ {... */\n  mstore(0x40, 0x80)\n  callvalue\n  dup1\n  iszero\n  tag_1\n  jumpi\n  0x00\n  dup1\n  revert\ntag_1:\n  pop\n  dataSize(sub_0)\n  dup1\n  dataOffset(sub_0)\n  0x00\n  codecopy\n  0x00\n  return\nstop\n\nsub_0: assembly {\n        /* \"Function.sol\":892:1251  contract XYZ {... */\n      mstore(0x40, 0x80)\n      callvalue\n      dup1\n      iszero\n      tag_1\n      jumpi\n      0x00\n      dup1\n      revert\n    tag_1:\n      pop\n      jumpi(tag_2, lt(calldatasize, 0x04))\n      shr(0xe0, calldataload(0x00))\n      dup1\n      0x127b4e08\n      eq\n      tag_3\n      jumpi\n      dup1\n      0x9a7846b9\n      eq\n      tag_4\n      jumpi\n    tag_2:\n      0x00\n      dup1\n      revert\n        /* \"Function.sol\":912:1106  function someFuncWithManyInputs(... */\n    tag_3:\n      tag_5\n      0x04\n      dup1\n      calldatasize\n      sub\n      dup2\n      add\n      swap1\n      tag_6\n      swap2\n      swap1\n      tag_7\n      jump\t// in\n    tag_6:\n      tag_8\n      jump\t// in\n    tag_5:\n      mload(0x40)\n      tag_9\n      swap2\n      swap1\n      tag_10\n      jump\t// in\n    tag_9:\n      mload(0x40)\n      dup1\n      swap2\n      sub\n      swap1\n      return\n        /* \"Function.sol\":1116:1248  function callFunc() external pure returns (uint256) {... */\n    tag_4:\n      tag_11\n      tag_12\n      jump\t// in\n    tag_11:\n      mload(0x40)\n      tag_13\n      swap2\n      swap1\n      tag_10\n      jump\t// in\n    tag_13:\n      mload(0x40)\n      dup1\n      swap2\n      sub\n      swap1\n      return\n        /* \"Function.sol\":912:1106  function someFuncWithManyInputs(... */\n    tag_8:\n        /* \"Function.sol\":1096:1103  uint256 */\n      0x00\n        /* \"Function.sol\":912:1106  function someFuncWithManyInputs(... */\n      swap7\n      swap6\n      pop\n      pop\n      pop\n      pop\n      pop\n      pop\n      jump\t// out\n        /* \"Function.sol\":1116:1248  function callFunc() external pure returns (uint256) {... */\n    tag_12:\n        /* \"Function.sol\":1159:1166  uint256 */\n      0x00\n        /* \"Function.sol\":1186:1240  someFuncWithManyInputs(1, 2, 3, address(0), true, \"c\") */\n      tag_16\n        /* \"Function.sol\":1209:1210  1 */\n      0x01\n        /* \"Function.sol\":1212:1213  2 */\n      0x02\n        /* \"Function.sol\":1215:1216  3 */\n      0x03\n        /* \"Function.sol\":1226:1227  0 */\n      0x00\n        /* \"Function.sol\":1230:1234  true */\n      0x01\n        /* \"Function.sol\":1186:1240  someFuncWithManyInputs(1, 2, 3, address(0), true, \"c\") */\n      mload(0x40)\n      dup1\n      0x40\n      add\n      0x40\n      mstore\n      dup1\n      0x01\n      dup2\n      mstore\n      0x20\n      add\n      0x6300000000000000000000000000000000000000000000000000000000000000\n      dup2\n      mstore\n      pop\n        /* \"Function.sol\":1186:1208  someFuncWithManyInputs */\n      tag_8\n        /* \"Function.sol\":1186:1240  someFuncWithManyInputs(1, 2, 3, address(0), true, \"c\") */\n      jump\t// in\n    tag_16:\n        /* \"Function.sol\":1179:1240  return someFuncWithManyInputs(1, 2, 3, address(0), true, \"c\") */\n      swap1\n      pop\n        /* \"Function.sol\":1116:1248  function callFunc() external pure returns (uint256) {... */\n      swap1\n      jump\t// out\n        /* \"#utility.yul\":7:82   */\n    tag_17:\n        /* \"#utility.yul\":40:46   */\n      0x00\n        /* \"#utility.yul\":73:75   */\n      0x40\n        /* \"#utility.yul\":67:76   */\n      mload\n        /* \"#utility.yul\":57:76   */\n      swap1\n      pop\n        /* \"#utility.yul\":7:82   */\n      swap1\n      jump\t// out\n        /* \"#utility.yul\":88:205   */\n    tag_18:\n        /* \"#utility.yul\":197:198   */\n      0x00\n        /* \"#utility.yul\":194:195   */\n      dup1\n        /* \"#utility.yul\":187:199   */\n      revert\n        /* \"#utility.yul\":211:328   */\n    tag_19:\n        /* \"#utility.yul\":320:321   */\n      0x00\n        /* \"#utility.yul\":317:318   */\n      dup1\n        /* \"#utility.yul\":310:322   */\n      revert\n        /* \"#utility.yul\":334:411   */\n    tag_20:\n        /* \"#utility.yul\":371:378   */\n      0x00\n        /* \"#utility.yul\":400:405   */\n      dup2\n        /* \"#utility.yul\":389:405   */\n      swap1\n      pop\n        /* \"#utility.yul\":334:411   */\n      swap2\n      swap1\n      pop\n      jump\t// out\n        /* \"#utility.yul\":417:539   */\n    tag_21:\n        /* \"#utility.yul\":490:514   */\n      tag_47\n        /* \"#utility.yul\":508:513   */\n      dup2\n        /* \"#utility.yul\":490:514   */\n      tag_20\n      jump\t// in\n    tag_47:\n        /* \"#utility.yul\":483:488   */\n      dup2\n        /* \"#utility.yul\":480:515   */\n      eq\n        /* \"#utility.yul\":470:533   */\n      tag_48\n      jumpi\n        /* \"#utility.yul\":529:530   */\n      0x00\n        /* \"#utility.yul\":526:527   */\n      dup1\n        /* \"#utility.yul\":519:531   */\n      revert\n        /* \"#utility.yul\":470:533   */\n    tag_48:\n        /* \"#utility.yul\":417:539   */\n      pop\n      jump\t// out\n        /* \"#utility.yul\":545:684   */\n    tag_22:\n        /* \"#utility.yul\":591:596   */\n      0x00\n        /* \"#utility.yul\":629:635   */\n      dup2\n        /* \"#utility.yul\":616:636   */\n      calldataload\n        /* \"#utility.yul\":607:636   */\n      swap1\n      pop\n        /* \"#utility.yul\":645:678   */\n      tag_50\n        /* \"#utility.yul\":672:677   */\n      dup2\n        /* \"#utility.yul\":645:678   */\n      tag_21\n      jump\t// in\n    tag_50:\n        /* \"#utility.yul\":545:684   */\n      swap3\n      swap2\n      pop\n      pop\n      jump\t// out\n        /* \"#utility.yul\":690:816   */\n    tag_23:\n        /* \"#utility.yul\":727:734   */\n      0x00\n        /* \"#utility.yul\":767:809   */\n      0xffffffffffffffffffffffffffffffffffffffff\n        /* \"#utility.yul\":760:765   */\n      dup3\n        /* \"#utility.yul\":756:810   */\n      and\n        /* \"#utility.yul\":745:810   */\n      swap1\n      pop\n        /* \"#utility.yul\":690:816   */\n      swap2\n      swap1\n      pop\n      jump\t// out\n        /* \"#utility.yul\":822:918   */\n    tag_24:\n        /* \"#utility.yul\":859:866   */\n      0x00\n        /* \"#utility.yul\":888:912   */\n      tag_53\n        /* \"#utility.yul\":906:911   */\n      dup3\n        /* \"#utility.yul\":888:912   */\n      tag_23\n      jump\t// in\n    tag_53:\n        /* \"#utility.yul\":877:912   */\n      swap1\n      pop\n        /* \"#utility.yul\":822:918   */\n      swap2\n      swap1\n      pop\n      jump\t// out\n        /* \"#utility.yul\":924:1046   */\n    tag_25:\n        /* \"#utility.yul\":997:1021   */\n      tag_55\n        /* \"#utility.yul\":1015:1020   */\n      dup2\n        /* \"#utility.yul\":997:1021   */\n      tag_24\n      jump\t// in\n    tag_55:\n        /* \"#utility.yul\":990:995   */\n      dup2\n        /* \"#utility.yul\":987:1022   */\n      eq\n        /* \"#utility.yul\":977:1040   */\n      tag_56\n      jumpi\n        /* \"#utility.yul\":1036:1037   */\n      0x00\n        /* \"#utility.yul\":1033:1034   */\n      dup1\n        /* \"#utility.yul\":1026:1038   */\n      revert\n        /* \"#utility.yul\":977:1040   */\n    tag_56:\n        /* \"#utility.yul\":924:1046   */\n      pop\n      jump\t// out\n        /* \"#utility.yul\":1052:1191   */\n    tag_26:\n        /* \"#utility.yul\":1098:1103   */\n      0x00\n        /* \"#utility.yul\":1136:1142   */\n      dup2\n        /* \"#utility.yul\":1123:1143   */\n      calldataload\n        /* \"#utility.yul\":1114:1143   */\n      swap1\n      pop\n        /* \"#utility.yul\":1152:1185   */\n      tag_58\n        /* \"#utility.yul\":1179:1184   */\n      dup2\n        /* \"#utility.yul\":1152:1185   */\n      tag_25\n      jump\t// in\n    tag_58:\n        /* \"#utility.yul\":1052:1191   */\n      swap3\n      swap2\n      pop\n      pop\n      jump\t// out\n        /* \"#utility.yul\":1197:1287   */\n    tag_27:\n        /* \"#utility.yul\":1231:1238   */\n      0x00\n        /* \"#utility.yul\":1274:1279   */\n      dup2\n        /* \"#utility.yul\":1267:1280   */\n      iszero\n        /* \"#utility.yul\":1260:1281   */\n      iszero\n        /* \"#utility.yul\":1249:1281   */\n      swap1\n      pop\n        /* \"#utility.yul\":1197:1287   */\n      swap2\n      swap1\n      pop\n      jump\t// out\n        /* \"#utility.yul\":1293:1409   */\n    tag_28:\n        /* \"#utility.yul\":1363:1384   */\n      tag_61\n        /* \"#utility.yul\":1378:1383   */\n      dup2\n        /* \"#utility.yul\":1363:1384   */\n      tag_27\n      jump\t// in\n    tag_61:\n        /* \"#utility.yul\":1356:1361   */\n      dup2\n        /* \"#utility.yul\":1353:1385   */\n      eq\n        /* \"#utility.yul\":1343:1403   */\n      tag_62\n      jumpi\n        /* \"#utility.yul\":1399:1400   */\n      0x00\n        /* \"#utility.yul\":1396:1397   */\n      dup1\n        /* \"#utility.yul\":1389:1401   */\n      revert\n        /* \"#utility.yul\":1343:1403   */\n    tag_62:\n        /* \"#utility.yul\":1293:1409   */\n      pop\n      jump\t// out\n        /* \"#utility.yul\":1415:1548   */\n    tag_29:\n        /* \"#utility.yul\":1458:1463   */\n      0x00\n        /* \"#utility.yul\":1496:1502   */\n      dup2\n        /* \"#utility.yul\":1483:1503   */\n      calldataload\n        /* \"#utility.yul\":1474:1503   */\n      swap1\n      pop\n        /* \"#utility.yul\":1512:1542   */\n      tag_64\n        /* \"#utility.yul\":1536:1541   */\n      dup2\n        /* \"#utility.yul\":1512:1542   */\n      tag_28\n      jump\t// in\n    tag_64:\n        /* \"#utility.yul\":1415:1548   */\n      swap3\n      swap2\n      pop\n      pop\n      jump\t// out\n        /* \"#utility.yul\":1554:1671   */\n    tag_30:\n        /* \"#utility.yul\":1663:1664   */\n      0x00\n        /* \"#utility.yul\":1660:1661   */\n      dup1\n        /* \"#utility.yul\":1653:1665   */\n      revert\n        /* \"#utility.yul\":1677:1794   */\n    tag_31:\n        /* \"#utility.yul\":1786:1787   */\n      0x00\n        /* \"#utility.yul\":1783:1784   */\n      dup1\n        /* \"#utility.yul\":1776:1788   */\n      revert\n        /* \"#utility.yul\":1800:1902   */\n    tag_32:\n        /* \"#utility.yul\":1841:1847   */\n      0x00\n        /* \"#utility.yul\":1892:1894   */\n      0x1f\n        /* \"#utility.yul\":1888:1895   */\n      not\n        /* \"#utility.yul\":1883:1885   */\n      0x1f\n        /* \"#utility.yul\":1876:1881   */\n      dup4\n        /* \"#utility.yul\":1872:1886   */\n      add\n        /* \"#utility.yul\":1868:1896   */\n      and\n        /* \"#utility.yul\":1858:1896   */\n      swap1\n      pop\n        /* \"#utility.yul\":1800:1902   */\n      swap2\n      swap1\n      pop\n      jump\t// out\n        /* \"#utility.yul\":1908:2088   */\n    tag_33:\n        /* \"#utility.yul\":1956:2033   */\n      0x4e487b7100000000000000000000000000000000000000000000000000000000\n        /* \"#utility.yul\":1953:1954   */\n      0x00\n        /* \"#utility.yul\":1946:2034   */\n      mstore\n        /* \"#utility.yul\":2053:2057   */\n      0x41\n        /* \"#utility.yul\":2050:2051   */\n      0x04\n        /* \"#utility.yul\":2043:2058   */\n      mstore\n        /* \"#utility.yul\":2077:2081   */\n      0x24\n        /* \"#utility.yul\":2074:2075   */\n      0x00\n        /* \"#utility.yul\":2067:2082   */\n      revert\n        /* \"#utility.yul\":2094:2375   */\n    tag_34:\n        /* \"#utility.yul\":2177:2204   */\n      tag_70\n        /* \"#utility.yul\":2199:2203   */\n      dup3\n        /* \"#utility.yul\":2177:2204   */\n      tag_32\n      jump\t// in\n    tag_70:\n        /* \"#utility.yul\":2169:2175   */\n      dup2\n        /* \"#utility.yul\":2165:2205   */\n      add\n        /* \"#utility.yul\":2307:2313   */\n      dup2\n        /* \"#utility.yul\":2295:2305   */\n      dup2\n        /* \"#utility.yul\":2292:2314   */\n      lt\n        /* \"#utility.yul\":2271:2289   */\n      0xffffffffffffffff\n        /* \"#utility.yul\":2259:2269   */\n      dup3\n        /* \"#utility.yul\":2256:2290   */\n      gt\n        /* \"#utility.yul\":2253:2315   */\n      or\n        /* \"#utility.yul\":2250:2338   */\n      iszero\n      tag_71\n      jumpi\n        /* \"#utility.yul\":2318:2336   */\n      tag_72\n      tag_33\n      jump\t// in\n    tag_72:\n        /* \"#utility.yul\":2250:2338   */\n    tag_71:\n        /* \"#utility.yul\":2358:2368   */\n      dup1\n        /* \"#utility.yul\":2354:2356   */\n      0x40\n        /* \"#utility.yul\":2347:2369   */\n      mstore\n        /* \"#utility.yul\":2137:2375   */\n      pop\n        /* \"#utility.yul\":2094:2375   */\n      pop\n      pop\n      jump\t// out\n        /* \"#utility.yul\":2381:2510   */\n    tag_35:\n        /* \"#utility.yul\":2415:2421   */\n      0x00\n        /* \"#utility.yul\":2442:2462   */\n      tag_74\n      tag_17\n      jump\t// in\n    tag_74:\n        /* \"#utility.yul\":2432:2462   */\n      swap1\n      pop\n        /* \"#utility.yul\":2471:2504   */\n      tag_75\n        /* \"#utility.yul\":2499:2503   */\n      dup3\n        /* \"#utility.yul\":2491:2497   */\n      dup3\n        /* \"#utility.yul\":2471:2504   */\n      tag_34\n      jump\t// in\n    tag_75:\n        /* \"#utility.yul\":2381:2510   */\n      swap2\n      swap1\n      pop\n      jump\t// out\n        /* \"#utility.yul\":2516:2824   */\n    tag_36:\n        /* \"#utility.yul\":2578:2582   */\n      0x00\n        /* \"#utility.yul\":2668:2686   */\n      0xffffffffffffffff\n        /* \"#utility.yul\":2660:2666   */\n      dup3\n        /* \"#utility.yul\":2657:2687   */\n      gt\n        /* \"#utility.yul\":2654:2710   */\n      iszero\n      tag_77\n      jumpi\n        /* \"#utility.yul\":2690:2708   */\n      tag_78\n      tag_33\n      jump\t// in\n    tag_78:\n        /* \"#utility.yul\":2654:2710   */\n    tag_77:\n        /* \"#utility.yul\":2728:2757   */\n      tag_79\n        /* \"#utility.yul\":2750:2756   */\n      dup3\n        /* \"#utility.yul\":2728:2757   */\n      tag_32\n      jump\t// in\n    tag_79:\n        /* \"#utility.yul\":2720:2757   */\n      swap1\n      pop\n        /* \"#utility.yul\":2812:2816   */\n      0x20\n        /* \"#utility.yul\":2806:2810   */\n      dup2\n        /* \"#utility.yul\":2802:2817   */\n      add\n        /* \"#utility.yul\":2794:2817   */\n      swap1\n      pop\n        /* \"#utility.yul\":2516:2824   */\n      swap2\n      swap1\n      pop\n      jump\t// out\n        /* \"#utility.yul\":2830:2976   */\n    tag_37:\n        /* \"#utility.yul\":2927:2933   */\n      dup3\n        /* \"#utility.yul\":2922:2925   */\n      dup2\n        /* \"#utility.yul\":2917:2920   */\n      dup4\n        /* \"#utility.yul\":2904:2934   */\n      calldatacopy\n        /* \"#utility.yul\":2968:2969   */\n      0x00\n        /* \"#utility.yul\":2959:2965   */\n      dup4\n        /* \"#utility.yul\":2954:2957   */\n      dup4\n        /* \"#utility.yul\":2950:2966   */\n      add\n        /* \"#utility.yul\":2943:2970   */\n      mstore\n        /* \"#utility.yul\":2830:2976   */\n      pop\n      pop\n      pop\n      jump\t// out\n        /* \"#utility.yul\":2982:3407   */\n    tag_38:\n        /* \"#utility.yul\":3060:3065   */\n      0x00\n        /* \"#utility.yul\":3085:3151   */\n      tag_82\n        /* \"#utility.yul\":3101:3150   */\n      tag_83\n        /* \"#utility.yul\":3143:3149   */\n      dup5\n        /* \"#utility.yul\":3101:3150   */\n      tag_36\n      jump\t// in\n    tag_83:\n        /* \"#utility.yul\":3085:3151   */\n      tag_35\n      jump\t// in\n    tag_82:\n        /* \"#utility.yul\":3076:3151   */\n      swap1\n      pop\n        /* \"#utility.yul\":3174:3180   */\n      dup3\n        /* \"#utility.yul\":3167:3172   */\n      dup2\n        /* \"#utility.yul\":3160:3181   */\n      mstore\n        /* \"#utility.yul\":3212:3216   */\n      0x20\n        /* \"#utility.yul\":3205:3210   */\n      dup2\n        /* \"#utility.yul\":3201:3217   */\n      add\n        /* \"#utility.yul\":3250:3253   */\n      dup5\n        /* \"#utility.yul\":3241:3247   */\n      dup5\n        /* \"#utility.yul\":3236:3239   */\n      dup5\n        /* \"#utility.yul\":3232:3248   */\n      add\n        /* \"#utility.yul\":3229:3254   */\n      gt\n        /* \"#utility.yul\":3226:3338   */\n      iszero\n      tag_84\n      jumpi\n        /* \"#utility.yul\":3257:3336   */\n      tag_85\n      tag_31\n      jump\t// in\n    tag_85:\n        /* \"#utility.yul\":3226:3338   */\n    tag_84:\n        /* \"#utility.yul\":3347:3401   */\n      tag_86\n        /* \"#utility.yul\":3394:3400   */\n      dup5\n        /* \"#utility.yul\":3389:3392   */\n      dup3\n        /* \"#utility.yul\":3384:3387   */\n      dup6\n        /* \"#utility.yul\":3347:3401   */\n      tag_37\n      jump\t// in\n    tag_86:\n        /* \"#utility.yul\":3066:3407   */\n      pop\n        /* \"#utility.yul\":2982:3407   */\n      swap4\n      swap3\n      pop\n      pop\n      pop\n      jump\t// out\n        /* \"#utility.yul\":3427:3767   */\n    tag_39:\n        /* \"#utility.yul\":3483:3488   */\n      0x00\n        /* \"#utility.yul\":3532:3535   */\n      dup3\n        /* \"#utility.yul\":3525:3529   */\n      0x1f\n        /* \"#utility.yul\":3517:3523   */\n      dup4\n        /* \"#utility.yul\":3513:3530   */\n      add\n        /* \"#utility.yul\":3509:3536   */\n      slt\n        /* \"#utility.yul\":3499:3621   */\n      tag_88\n      jumpi\n        /* \"#utility.yul\":3540:3619   */\n      tag_89\n      tag_30\n      jump\t// in\n    tag_89:\n        /* \"#utility.yul\":3499:3621   */\n    tag_88:\n        /* \"#utility.yul\":3657:3663   */\n      dup2\n        /* \"#utility.yul\":3644:3664   */\n      calldataload\n        /* \"#utility.yul\":3682:3761   */\n      tag_90\n        /* \"#utility.yul\":3757:3760   */\n      dup5\n        /* \"#utility.yul\":3749:3755   */\n      dup3\n        /* \"#utility.yul\":3742:3746   */\n      0x20\n        /* \"#utility.yul\":3734:3740   */\n      dup7\n        /* \"#utility.yul\":3730:3747   */\n      add\n        /* \"#utility.yul\":3682:3761   */\n      tag_38\n      jump\t// in\n    tag_90:\n        /* \"#utility.yul\":3673:3761   */\n      swap2\n      pop\n        /* \"#utility.yul\":3489:3767   */\n      pop\n        /* \"#utility.yul\":3427:3767   */\n      swap3\n      swap2\n      pop\n      pop\n      jump\t// out\n        /* \"#utility.yul\":3773:5004   */\n    tag_7:\n        /* \"#utility.yul\":3884:3890   */\n      0x00\n        /* \"#utility.yul\":3892:3898   */\n      dup1\n        /* \"#utility.yul\":3900:3906   */\n      0x00\n        /* \"#utility.yul\":3908:3914   */\n      dup1\n        /* \"#utility.yul\":3916:3922   */\n      0x00\n        /* \"#utility.yul\":3924:3930   */\n      dup1\n        /* \"#utility.yul\":3973:3976   */\n      0xc0\n        /* \"#utility.yul\":3961:3970   */\n      dup8\n        /* \"#utility.yul\":3952:3959   */\n      dup10\n        /* \"#utility.yul\":3948:3971   */\n      sub\n        /* \"#utility.yul\":3944:3977   */\n      slt\n        /* \"#utility.yul\":3941:4061   */\n      iszero\n      tag_92\n      jumpi\n        /* \"#utility.yul\":3980:4059   */\n      tag_93\n      tag_18\n      jump\t// in\n    tag_93:\n        /* \"#utility.yul\":3941:4061   */\n    tag_92:\n        /* \"#utility.yul\":4100:4101   */\n      0x00\n        /* \"#utility.yul\":4125:4178   */\n      tag_94\n        /* \"#utility.yul\":4170:4177   */\n      dup10\n        /* \"#utility.yul\":4161:4167   */\n      dup3\n        /* \"#utility.yul\":4150:4159   */\n      dup11\n        /* \"#utility.yul\":4146:4168   */\n      add\n        /* \"#utility.yul\":4125:4178   */\n      tag_22\n      jump\t// in\n    tag_94:\n        /* \"#utility.yul\":4115:4178   */\n      swap7\n      pop\n        /* \"#utility.yul\":4071:4188   */\n      pop\n        /* \"#utility.yul\":4227:4229   */\n      0x20\n        /* \"#utility.yul\":4253:4306   */\n      tag_95\n        /* \"#utility.yul\":4298:4305   */\n      dup10\n        /* \"#utility.yul\":4289:4295   */\n      dup3\n        /* \"#utility.yul\":4278:4287   */\n      dup11\n        /* \"#utility.yul\":4274:4296   */\n      add\n        /* \"#utility.yul\":4253:4306   */\n      tag_22\n      jump\t// in\n    tag_95:\n        /* \"#utility.yul\":4243:4306   */\n      swap6\n      pop\n        /* \"#utility.yul\":4198:4316   */\n      pop\n        /* \"#utility.yul\":4355:4357   */\n      0x40\n        /* \"#utility.yul\":4381:4434   */\n      tag_96\n        /* \"#utility.yul\":4426:4433   */\n      dup10\n        /* \"#utility.yul\":4417:4423   */\n      dup3\n        /* \"#utility.yul\":4406:4415   */\n      dup11\n        /* \"#utility.yul\":4402:4424   */\n      add\n        /* \"#utility.yul\":4381:4434   */\n      tag_22\n      jump\t// in\n    tag_96:\n        /* \"#utility.yul\":4371:4434   */\n      swap5\n      pop\n        /* \"#utility.yul\":4326:4444   */\n      pop\n        /* \"#utility.yul\":4483:4485   */\n      0x60\n        /* \"#utility.yul\":4509:4562   */\n      tag_97\n        /* \"#utility.yul\":4554:4561   */\n      dup10\n        /* \"#utility.yul\":4545:4551   */\n      dup3\n        /* \"#utility.yul\":4534:4543   */\n      dup11\n        /* \"#utility.yul\":4530:4552   */\n      add\n        /* \"#utility.yul\":4509:4562   */\n      tag_26\n      jump\t// in\n    tag_97:\n        /* \"#utility.yul\":4499:4562   */\n      swap4\n      pop\n        /* \"#utility.yul\":4454:4572   */\n      pop\n        /* \"#utility.yul\":4611:4614   */\n      0x80\n        /* \"#utility.yul\":4638:4688   */\n      tag_98\n        /* \"#utility.yul\":4680:4687   */\n      dup10\n        /* \"#utility.yul\":4671:4677   */\n      dup3\n        /* \"#utility.yul\":4660:4669   */\n      dup11\n        /* \"#utility.yul\":4656:4678   */\n      add\n        /* \"#utility.yul\":4638:4688   */\n      tag_29\n      jump\t// in\n    tag_98:\n        /* \"#utility.yul\":4628:4688   */\n      swap3\n      pop\n        /* \"#utility.yul\":4582:4698   */\n      pop\n        /* \"#utility.yul\":4765:4768   */\n      0xa0\n        /* \"#utility.yul\":4754:4763   */\n      dup8\n        /* \"#utility.yul\":4750:4769   */\n      add\n        /* \"#utility.yul\":4737:4770   */\n      calldataload\n        /* \"#utility.yul\":4797:4815   */\n      0xffffffffffffffff\n        /* \"#utility.yul\":4789:4795   */\n      dup2\n        /* \"#utility.yul\":4786:4816   */\n      gt\n        /* \"#utility.yul\":4783:4900   */\n      iszero\n      tag_99\n      jumpi\n        /* \"#utility.yul\":4819:4898   */\n      tag_100\n      tag_19\n      jump\t// in\n    tag_100:\n        /* \"#utility.yul\":4783:4900   */\n    tag_99:\n        /* \"#utility.yul\":4924:4987   */\n      tag_101\n        /* \"#utility.yul\":4979:4986   */\n      dup10\n        /* \"#utility.yul\":4970:4976   */\n      dup3\n        /* \"#utility.yul\":4959:4968   */\n      dup11\n        /* \"#utility.yul\":4955:4977   */\n      add\n        /* \"#utility.yul\":4924:4987   */\n      tag_39\n      jump\t// in\n    tag_101:\n        /* \"#utility.yul\":4914:4987   */\n      swap2\n      pop\n        /* \"#utility.yul\":4708:4997   */\n      pop\n        /* \"#utility.yul\":3773:5004   */\n      swap3\n      swap6\n      pop\n      swap3\n      swap6\n      pop\n      swap3\n      swap6\n      jump\t// out\n        /* \"#utility.yul\":5010:5128   */\n    tag_40:\n        /* \"#utility.yul\":5097:5121   */\n      tag_103\n        /* \"#utility.yul\":5115:5120   */\n      dup2\n        /* \"#utility.yul\":5097:5121   */\n      tag_20\n      jump\t// in\n    tag_103:\n        /* \"#utility.yul\":5092:5095   */\n      dup3\n        /* \"#utility.yul\":5085:5122   */\n      mstore\n        /* \"#utility.yul\":5010:5128   */\n      pop\n      pop\n      jump\t// out\n        /* \"#utility.yul\":5134:5356   */\n    tag_10:\n        /* \"#utility.yul\":5227:5231   */\n      0x00\n        /* \"#utility.yul\":5265:5267   */\n      0x20\n        /* \"#utility.yul\":5254:5263   */\n      dup3\n        /* \"#utility.yul\":5250:5268   */\n      add\n        /* \"#utility.yul\":5242:5268   */\n      swap1\n      pop\n        /* \"#utility.yul\":5278:5349   */\n      tag_105\n        /* \"#utility.yul\":5346:5347   */\n      0x00\n        /* \"#utility.yul\":5335:5344   */\n      dup4\n        /* \"#utility.yul\":5331:5348   */\n      add\n        /* \"#utility.yul\":5322:5328   */\n      dup5\n        /* \"#utility.yul\":5278:5349   */\n      tag_40\n      jump\t// in\n    tag_105:\n        /* \"#utility.yul\":5134:5356   */\n      swap3\n      swap2\n      pop\n      pop\n      jump\t// out\n\n    auxdata: 0xa2646970667358221220925cb8b4a897134878d0e5f4d47fcc374246b0cda7c61042a28f6b09065cc14064736f6c63430008180033\n}\n",
				"bytecode": {
					"linkReferences": {},
					"object": "608060405234801561000f575f80fd5b506103f08061001d5f395ff3fe608060405234801561000f575f80fd5b5060043610610034575f3560e01c8063127b4e08146100385780639a7846b914610068575b5f80fd5b610052600480360381019061004d91906102ed565b610086565b60405161005f91906103a1565b60405180910390f35b610070610091565b60405161007d91906103a1565b60405180910390f35b5f9695505050505050565b5f6100d96001600260035f60016040518060400160405280600181526020017f6300000000000000000000000000000000000000000000000000000000000000815250610086565b905090565b5f604051905090565b5f80fd5b5f80fd5b5f819050919050565b610101816100ef565b811461010b575f80fd5b50565b5f8135905061011c816100f8565b92915050565b5f73ffffffffffffffffffffffffffffffffffffffff82169050919050565b5f61014b82610122565b9050919050565b61015b81610141565b8114610165575f80fd5b50565b5f8135905061017681610152565b92915050565b5f8115159050919050565b6101908161017c565b811461019a575f80fd5b50565b5f813590506101ab81610187565b92915050565b5f80fd5b5f80fd5b5f601f19601f8301169050919050565b7f4e487b71000000000000000000000000000000000000000000000000000000005f52604160045260245ffd5b6101ff826101b9565b810181811067ffffffffffffffff8211171561021e5761021d6101c9565b5b80604052505050565b5f6102306100de565b905061023c82826101f6565b919050565b5f67ffffffffffffffff82111561025b5761025a6101c9565b5b610264826101b9565b9050602081019050919050565b828183375f83830152505050565b5f61029161028c84610241565b610227565b9050828152602081018484840111156102ad576102ac6101b5565b5b6102b8848285610271565b509392505050565b5f82601f8301126102d4576102d36101b1565b5b81356102e484826020860161027f565b91505092915050565b5f805f805f8060c08789031215610307576103066100e7565b5b5f61031489828a0161010e565b965050602061032589828a0161010e565b955050604061033689828a0161010e565b945050606061034789828a01610168565b935050608061035889828a0161019d565b92505060a087013567ffffffffffffffff811115610379576103786100eb565b5b61038589828a016102c0565b9150509295509295509295565b61039b816100ef565b82525050565b5f6020820190506103b45f830184610392565b9291505056fea2646970667358221220925cb8b4a897134878d0e5f4d47fcc374246b0cda7c61042a28f6b09065cc14064736f6c63430008180033",
					"opcodes": "PUSH1 0x80 PUSH1 0x40 MSTORE CALLVALUE DUP1 ISZERO PUSH2 0xF JUMPI PUSH0 DUP1 REVERT JUMPDEST POP PUSH2 0x3F0 DUP1 PUSH2 0x1D PUSH0 CODECOPY PUSH0 RETURN INVALID PUSH1 0x80 PUSH1 0x40 MSTORE CALLVALUE DUP1 ISZERO PUSH2 0xF JUMPI PUSH0 DUP1 REVERT JUMPDEST POP PUSH1 0x4 CALLDATASIZE LT PUSH2 0x34 JUMPI PUSH0 CALLDATALOAD PUSH1 0xE0 SHR DUP1 PUSH4 0x127B4E08 EQ PUSH2 0x38 JUMPI DUP1 PUSH4 0x9A7846B9 EQ PUSH2 0x68 JUMPI JUMPDEST PUSH0 DUP1 REVERT JUMPDEST PUSH2 0x52 PUSH1 0x4 DUP1 CALLDATASIZE SUB DUP2 ADD SWAP1 PUSH2 0x4D SWAP2 SWAP1 PUSH2 0x2ED JUMP JUMPDEST PUSH2 0x86 JUMP JUMPDEST PUSH1 0x40 MLOAD PUSH2 0x5F SWAP2 SWAP1 PUSH2 0x3A1 JUMP JUMPDEST PUSH1 0x40 MLOAD DUP1 SWAP2 SUB SWAP1 RETURN JUMPDEST PUSH2 0x70 PUSH2 0x91 JUMP JUMPDEST PUSH1 0x40 MLOAD PUSH2 0x7D SWAP2 SWAP1 PUSH2 0x3A1 JUMP JUMPDEST PUSH1 0x40 MLOAD DUP1 SWAP2 SUB SWAP1 RETURN JUMPDEST PUSH0 SWAP7 SWAP6 POP POP POP POP POP POP JUMP JUMPDEST PUSH0 PUSH2 0xD9 PUSH1 0x1 PUSH1 0x2 PUSH1 0x3 PUSH0 PUSH1 0x1 PUSH1 0x40 MLOAD DUP1 PUSH1 0x40 ADD PUSH1 0x40 MSTORE DUP1 PUSH1 0x1 DUP2 MSTORE PUSH1 0x20 ADD PUSH32 0x6300000000000000000000000000000000000000000000000000000000000000 DUP2 MSTORE POP PUSH2 0x86 JUMP JUMPDEST SWAP1 POP SWAP1 JUMP JUMPDEST PUSH0 PUSH1 0x40 MLOAD SWAP1 POP SWAP1 JUMP JUMPDEST PUSH0 DUP1 REVERT JUMPDEST PUSH0 DUP1 REVERT JUMPDEST PUSH0 DUP2 SWAP1 POP SWAP2 SWAP1 POP JUMP JUMPDEST PUSH2 0x101 DUP2 PUSH2 0xEF JUMP JUMPDEST DUP2 EQ PUSH2 0x10B JUMPI PUSH0 DUP1 REVERT JUMPDEST POP JUMP JUMPDEST PUSH0 DUP2 CALLDATALOAD SWAP1 POP PUSH2 0x11C DUP2 PUSH2 0xF8 JUMP JUMPDEST SWAP3 SWAP2 POP POP JUMP JUMPDEST PUSH0 PUSH20 0xFFFFFFFFFFFFFFFFFFFFFFFFFFFFFFFFFFFFFFFF DUP3 AND SWAP1 POP SWAP2 SWAP1 POP JUMP JUMPDEST PUSH0 PUSH2 0x14B DUP3 PUSH2 0x122 JUMP JUMPDEST SWAP1 POP SWAP2 SWAP1 POP JUMP JUMPDEST PUSH2 0x15B DUP2 PUSH2 0x141 JUMP JUMPDEST DUP2 EQ PUSH2 0x165 JUMPI PUSH0 DUP1 REVERT JUMPDEST POP JUMP JUMPDEST PUSH0 DUP2 CALLDATALOAD SWAP1 POP PUSH2 0x176 DUP2 PUSH2 0x152 JUMP JUMPDEST SWAP3 SWAP2 POP POP JUMP JUMPDEST PUSH0 DUP2 ISZERO ISZERO SWAP1 POP SWAP2 SWAP1 POP JUMP JUMPDEST PUSH2 0x190 DUP2 PUSH2 0x17C JUMP JUMPDEST DUP2 EQ PUSH2 0x19A JUMPI PUSH0 DUP1 REVERT JUMPDEST POP JUMP JUMPDEST PUSH0 DUP2 CALLDATALOAD SWAP1 POP PUSH2 0x1AB DUP2 PUSH2 0x187 JUMP JUMPDEST SWAP3 SWAP2 POP POP JUMP JUMPDEST PUSH0 DUP1 REVERT JUMPDEST PUSH0 DUP1 REVERT JUMPDEST PUSH0 PUSH1 0x1F NOT PUSH1 0x1F DUP4 ADD AND SWAP1 POP SWAP2 SWAP1 POP JUMP JUMPDEST PUSH32 0x4E487B7100000000000000000000000000000000000000000000000000000000 PUSH0 MSTORE PUSH1 0x41 PUSH1 0x4 MSTORE PUSH1 0x24 PUSH0 REVERT JUMPDEST PUSH2 0x1FF DUP3 PUSH2 0x1B9 JUMP JUMPDEST DUP2 ADD DUP2 DUP2 LT PUSH8 0xFFFFFFFFFFFFFFFF DUP3 GT OR ISZERO PUSH2 0x21E JUMPI PUSH2 0x21D PUSH2 0x1C9 JUMP JUMPDEST JUMPDEST DUP1 PUSH1 0x40 MSTORE POP POP POP JUMP JUMPDEST PUSH0 PUSH2 0x230 PUSH2 0xDE JUMP JUMPDEST SWAP1 POP PUSH2 0x23C DUP3 DUP3 PUSH2 0x1F6 JUMP JUMPDEST SWAP2 SWAP1 POP JUMP JUMPDEST PUSH0 PUSH8 0xFFFFFFFFFFFFFFFF DUP3 GT ISZERO PUSH2 0x25B JUMPI PUSH2 0x25A PUSH2 0x1C9 JUMP JUMPDEST JUMPDEST PUSH2 0x264 DUP3 PUSH2 0x1B9 JUMP JUMPDEST SWAP1 POP PUSH1 0x20 DUP2 ADD SWAP1 POP SWAP2 SWAP1 POP JUMP JUMPDEST DUP3 DUP2 DUP4 CALLDATACOPY PUSH0 DUP4 DUP4 ADD MSTORE POP POP POP JUMP JUMPDEST PUSH0 PUSH2 0x291 PUSH2 0x28C DUP5 PUSH2 0x241 JUMP JUMPDEST PUSH2 0x227 JUMP JUMPDEST SWAP1 POP DUP3 DUP2 MSTORE PUSH1 0x20 DUP2 ADD DUP5 DUP5 DUP5 ADD GT ISZERO PUSH2 0x2AD JUMPI PUSH2 0x2AC PUSH2 0x1B5 JUMP JUMPDEST JUMPDEST PUSH2 0x2B8 DUP5 DUP3 DUP6 PUSH2 0x271 JUMP JUMPDEST POP SWAP4 SWAP3 POP POP POP JUMP JUMPDEST PUSH0 DUP3 PUSH1 0x1F DUP4 ADD SLT PUSH2 0x2D4 JUMPI PUSH2 0x2D3 PUSH2 0x1B1 JUMP JUMPDEST JUMPDEST DUP2 CALLDATALOAD PUSH2 0x2E4 DUP5 DUP3 PUSH1 0x20 DUP7 ADD PUSH2 0x27F JUMP JUMPDEST SWAP2 POP POP SWAP3 SWAP2 POP POP JUMP JUMPDEST PUSH0 DUP1 PUSH0 DUP1 PUSH0 DUP1 PUSH1 0xC0 DUP8 DUP10 SUB SLT ISZERO PUSH2 0x307 JUMPI PUSH2 0x306 PUSH2 0xE7 JUMP JUMPDEST JUMPDEST PUSH0 PUSH2 0x314 DUP10 DUP3 DUP11 ADD PUSH2 0x10E JUMP JUMPDEST SWAP7 POP POP PUSH1 0x20 PUSH2 0x325 DUP10 DUP3 DUP11 ADD PUSH2 0x10E JUMP JUMPDEST SWAP6 POP POP PUSH1 0x40 PUSH2 0x336 DUP10 DUP3 DUP11 ADD PUSH2 0x10E JUMP JUMPDEST SWAP5 POP POP PUSH1 0x60 PUSH2 0x347 DUP10 DUP3 DUP11 ADD PUSH2 0x168 JUMP JUMPDEST SWAP4 POP POP PUSH1 0x80 PUSH2 0x358 DUP10 DUP3 DUP11 ADD PUSH2 0x19D JUMP JUMPDEST SWAP3 POP POP PUSH1 0xA0 DUP8 ADD CALLDATALOAD PUSH8 0xFFFFFFFFFFFFFFFF DUP2 GT ISZERO PUSH2 0x379 JUMPI PUSH2 0x378 PUSH2 0xEB JUMP JUMPDEST JUMPDEST PUSH2 0x385 DUP10 DUP3 DUP11 ADD PUSH2 0x2C0 JUMP JUMPDEST SWAP2 POP POP SWAP3 SWAP6 POP SWAP3 SWAP6 POP SWAP3 SWAP6 JUMP JUMPDEST PUSH2 0x39B DUP2 PUSH2 0xEF JUMP JUMPDEST DUP3 MSTORE POP POP JUMP JUMPDEST PUSH0 PUSH1 0x20 DUP3 ADD SWAP1 POP PUSH2 0x3B4 PUSH0 DUP4 ADD DUP5 PUSH2 0x392 JUMP JUMPDEST SWAP3 SWAP2 POP POP JUMP INVALID LOG2 PUSH5 0x6970667358 0x22 SLT KECCAK256 SWAP3 TLOAD 0xB8 0xB4 0xA8 SWAP8 SGT BASEFEE PUSH25 0xD0E5F4D47FCC374246B0CDA7C61042A28F6B09065CC1406473 PUSH16 0x6C634300081800330000000000000000 "
				},
				"gasEstimates": {
					"creation": {
						"codeDepositCost": "201600",
						"executionCost": "243",
						"totalCost": "201843"
					},
					"external": {
						"callFunc()": "443",
						"someFuncWithManyInputs(uint256,uint256,uint256,address,bool,string)": "infinite"
					}
				},
				"methodIdentifiers": {
					"callFunc()": "9a7846b9",
					"someFuncWithManyInputs(uint256,uint256,uint256,address,bool,string)": "127b4e08"
				}
			},
			"storageLayout": {
				"storage": [],
				"types": null
			},
			"userdoc": {
				"kind": "user",
				"methods": {},
				"version": 1
			}
		}
	}
}