{
	"Primitives.sol": {
		"Primitives": {
			"abi": [
				{
					"inputs": [],
					"name": "addr",
					"outputs": [
						{
							"internalType": "address",
							"name": "",
							"type": "address"
						}
					],
					"stateMutability": "view",
					"type": "function"
				},
				{
					"inputs": [],
					"name": "boo",
					"outputs": [
						{
							"internalType": "bool",
							"name": "",
							"type": "bool"
						}
					],
					"stateMutability": "view",
					"type": "function"
				},
				{
					"inputs": [],
					"name": "defaultAddr",
					"outputs": [
						{
							"internalType": "address",
							"name": "",
							"type": "address"
						}
					],
					"stateMutability": "view",
					"type": "function"
				},
				{
					"inputs": [],
					"name": "defaultBool",
					"outputs": [
						{
							"internalType": "bool",
							"name": "",
							"type": "bool"
						}
					],
					"stateMutability": "view",
					"type": "function"
				},
				{
					"inputs": [],
					"name": "defaultInt",
					"outputs": [
						{
							"internalType": "int256",
							"name": "",
							"type": "int256"
						}
					],
					"stateMutability": "view",
					"type": "function"
				},
				{
					"inputs": [],
					"name": "defaultUint",
					"outputs": [
						{
							"internalType": "uint256",
							"name": "",
							"type": "uint256"
						}
					],
					"stateMutability": "view",
					"type": "function"
				},
				{
					"inputs": [],
					"name": "i",
					"outputs": [
						{
							"internalType": "int256",
							"name": "",
							"type": "int256"
						}
					],
					"stateMutability": "view",
					"type": "function"
				},
				{
					"inputs": [],
					"name": "i256",
					"outputs": [
						{
							"internalType": "int256",
							"name": "",
							"type": "int256"
						}
					],
					"stateMutability": "view",
					"type": "function"
				},
				{
					"inputs": [],
					"name": "i8",
					"outputs": [
						{
							"internalType": "int8",
							"name": "",
							"type": "int8"
						}
					],
					"stateMutability": "view",
					"type": "function"
				},
				{
					"inputs": [],
					"name": "maxInt",
					"outputs": [
						{
							"internalType": "int256",
							"name": "",
							"type": "int256"
						}
					],
					"stateMutability": "view",
					"type": "function"
				},
				{
					"inputs": [],
					"name": "minInt",
					"outputs": [
						{
							"internalType": "int256",
							"name": "",
							"type": "int256"
						}
					],
					"stateMutability": "view",
					"type": "function"
				},
				{
					"inputs": [],
					"name": "u",
					"outputs": [
						{
							"internalType": "uint256",
							"name": "",
							"type": "uint256"
						}
					],
					"stateMutability": "view",
					"type": "function"
				},
				{
					"inputs": [],
					"name": "u256",
					"outputs": [
						{
							"internalType": "uint256",
							"name": "",
							"type": "uint256"
						}
					],
					"stateMutability": "view",
					"type": "function"
				},
				{
					"inputs": [],
					"name": "u8",
					"outputs": [
						{
							"internalType": "uint8",
							"name": "",
							"type": "uint8"
						}
					],
					"stateMutability": "view",
					"type": "function"
				}
			],
			"devdoc": {
				"kind": "dev",
				"methods": {},
				"version": 1
			},
			"evm": {
				"assembly": "    /* \"Primitives.sol\":61:729  contract Primitives{... */\n  mstore(0x40, 0x80)\n    /* \"Primitives.sol\":105:109  true */\n  0x01\n    /* \"Primitives.sol\":87:109  bool public boo = true */\n  0x00\n  dup1\n  0x0100\n  exp\n  dup2\n  sload\n  dup2\n  0xff\n  mul\n  not\n  and\n  swap1\n  dup4\n  iszero\n  iszero\n  mul\n  or\n  swap1\n  sstore\n  pop\n    /* \"Primitives.sol\":140:141  1 */\n  0x01\n    /* \"Primitives.sol\":122:141  uint8 public u8 = 1 */\n  0x00\n  exp(0x0100, 0x01)\n  dup2\n  sload\n  dup2\n  0xff\n  mul\n  not\n  and\n  swap1\n  dup4\n  0xff\n  and\n  mul\n  or\n  swap1\n  sstore\n  pop\n    /* \"Primitives.sol\":170:173  456 */\n  0x01c8\n    /* \"Primitives.sol\":148:173  uint256 public u256 = 456 */\n  0x01\n  sstore\n    /* \"Primitives.sol\":199:202  123 */\n  0x7b\n    /* \"Primitives.sol\":180:202  uint256 public u = 123 */\n  0x02\n  sstore\n    /* \"Primitives.sol\":228:230  -1 */\n  0xffffffffffffffffffffffffffffffffffffffffffffffffffffffffffffffff\n    /* \"Primitives.sol\":211:230  int8 public i8 = -1 */\n  0x03\n  exp(0x0100, 0x00)\n  dup2\n  sload\n  dup2\n  0xff\n  mul\n  not\n  and\n  swap1\n  dup4\n  0x00\n  signextend\n  0xff\n  and\n  mul\n  or\n  swap1\n  sstore\n  pop\n    /* \"Primitives.sol\":258:261  456 */\n  0x01c8\n    /* \"Primitives.sol\":237:261  int256 public i256 = 456 */\n  0x04\n  sstore\n    /* \"Primitives.sol\":286:290  -123 */\n  0xffffffffffffffffffffffffffffffffffffffffffffffffffffffffffffff85\n    /* \"Primitives.sol\":268:290  int256 public i = -123 */\n  0x05\n  sstore\n    /* \"Primitives.sol\":322:338  type(int256).min */\n  0x8000000000000000000000000000000000000000000000000000000000000000\n    /* \"Primitives.sol\":299:338  int256 public minInt = type(int256).min */\n  0x06\n  sstore\n    /* \"Primitives.sol\":368:384  type(int256).max */\n  0x7fffffffffffffffffffffffffffffffffffffffffffffffffffffffffffffff\n    /* \"Primitives.sol\":345:384  int256 public maxInt = type(int256).max */\n  0x07\n  sstore\n    /* \"Primitives.sol\":415:457  0xCA35b7d915458EF540aDe6068dFe2F44E8fa733c */\n  0xca35b7d915458ef540ade6068dfe2f44e8fa733c\n    /* \"Primitives.sol\":393:457  address public addr = 0xCA35b7d915458EF540aDe6068dFe2F44E8fa733c */\n  0x08\n  exp(0x0100, 0x00)\n  dup2\n  sload\n  dup2\n  0xffffffffffffffffffffffffffffffffffffffff\n  mul\n  not\n  and\n  swap1\n  dup4\n  0xffffffffffffffffffffffffffffffffffffffff\n  and\n  mul\n  or\n  swap1\n  sstore\n  pop\n    /* \"Primitives.sol\":497:501  0xb5 */\n  0xb5\n    /* \"Primitives.sol\":486:501  bytes1 a = 0xb5 */\n  0xf8\n  shl\n  0x08\n  exp(0x0100, 0x14)\n  dup2\n  sload\n  dup2\n  0xff\n  mul\n  not\n  and\n  swap1\n  dup4\n  0xf8\n  shr\n  mul\n  or\n  swap1\n  sstore\n  pop\n    /* \"Primitives.sol\":519:523  0x56 */\n  0x56\n    /* \"Primitives.sol\":508:523  bytes1 b = 0x56 */\n  0xf8\n  shl\n  0x08\n  exp(0x0100, 0x15)\n  dup2\n  sload\n  dup2\n  0xff\n  mul\n  not\n  and\n  swap1\n  dup4\n  0xf8\n  shr\n  mul\n  or\n  swap1\n  sstore\n  pop\n    /* \"Primitives.sol\":61:729  contract Primitives{... */\n  callvalue\n  dup1\n  iszero\n  tag_1\n  jumpi\n  0x00\n  dup1\n  revert\ntag_1:\n  pop\n  dataSize(sub_0)\n  dup1\n  dataOffset(sub_0)\n  0x00\n  codecopy\n  0x00\n  return\nstop\n\nsub_0: assembly {\n        /* \"Primitives.sol\":61:729  contract Primitives{... */\n      mstore(0x40, 0x80)\n      callvalue\n      dup1\n      iszero\n      tag_1\n      jumpi\n      0x00\n      dup1\n      revert\n    tag_1:\n      pop\n      jumpi(tag_2, lt(calldatasize, 0x04))\n      shr(0xe0, calldataload(0x00))\n      dup1\n      0x7e4e14cc\n      gt\n      tag_17\n      jumpi\n      dup1\n      0xc6a898c5\n      gt\n      tag_18\n      jumpi\n      dup1\n      0xc6a898c5\n      eq\n      tag_13\n      jumpi\n      dup1\n      0xd668f5b5\n      eq\n      tag_14\n      jumpi\n      dup1\n      0xe5aa3d58\n      eq\n      tag_15\n      jumpi\n      dup1\n      0xf2427d37\n      eq\n      tag_16\n      jumpi\n      jump(tag_2)\n    tag_18:\n      dup1\n      0x7e4e14cc\n      eq\n      tag_10\n      jumpi\n      dup1\n      0x921cda74\n      eq\n      tag_11\n      jumpi\n      dup1\n      0xab3a58a3\n      eq\n      tag_12\n      jumpi\n      jump(tag_2)\n    tag_17:\n      dup1\n      0x4c27fd62\n      gt\n      tag_19\n      jumpi\n      dup1\n      0x4c27fd62\n      eq\n      tag_6\n      jumpi\n      dup1\n      0x5abe622b\n      eq\n      tag_7\n      jumpi\n      dup1\n      0x767800de\n      eq\n      tag_8\n      jumpi\n      dup1\n      0x7a4c2571\n      eq\n      tag_9\n      jumpi\n      jump(tag_2)\n    tag_19:\n      dup1\n      0x1570c2cb\n      eq\n      tag_3\n      jumpi\n      dup1\n      0x459b1acf\n      eq\n      tag_4\n      jumpi\n      dup1\n      0x4b3df200\n      eq\n      tag_5\n      jumpi\n    tag_2:\n      0x00\n      dup1\n      revert\n        /* \"Primitives.sol\":571:597  uint256 public defaultUint */\n    tag_3:\n      tag_20\n      tag_21\n      jump\t// in\n    tag_20:\n      mload(0x40)\n      tag_22\n      swap2\n      swap1\n      tag_23\n      jump\t// in\n    tag_22:\n      mload(0x40)\n      dup1\n      swap2\n      sub\n      swap1\n      return\n        /* \"Primitives.sol\":148:173  uint256 public u256 = 456 */\n    tag_4:\n      tag_24\n      tag_25\n      jump\t// in\n    tag_24:\n      mload(0x40)\n      tag_26\n      swap2\n      swap1\n      tag_23\n      jump\t// in\n    tag_26:\n      mload(0x40)\n      dup1\n      swap2\n      sub\n      swap1\n      return\n        /* \"Primitives.sol\":87:109  bool public boo = true */\n    tag_5:\n      tag_27\n      tag_28\n      jump\t// in\n    tag_27:\n      mload(0x40)\n      tag_29\n      swap2\n      swap1\n      tag_30\n      jump\t// in\n    tag_29:\n      mload(0x40)\n      dup1\n      swap2\n      sub\n      swap1\n      return\n        /* \"Primitives.sol\":237:261  int256 public i256 = 456 */\n    tag_6:\n      tag_31\n      tag_32\n      jump\t// in\n    tag_31:\n      mload(0x40)\n      tag_33\n      swap2\n      swap1\n      tag_34\n      jump\t// in\n    tag_33:\n      mload(0x40)\n      dup1\n      swap2\n      sub\n      swap1\n      return\n        /* \"Primitives.sol\":609:633  int256 public defaultInt */\n    tag_7:\n      tag_35\n      tag_36\n      jump\t// in\n    tag_35:\n      mload(0x40)\n      tag_37\n      swap2\n      swap1\n      tag_34\n      jump\t// in\n    tag_37:\n      mload(0x40)\n      dup1\n      swap2\n      sub\n      swap1\n      return\n        /* \"Primitives.sol\":393:457  address public addr = 0xCA35b7d915458EF540aDe6068dFe2F44E8fa733c */\n    tag_8:\n      tag_38\n      tag_39\n      jump\t// in\n    tag_38:\n      mload(0x40)\n      tag_40\n      swap2\n      swap1\n      tag_41\n      jump\t// in\n    tag_40:\n      mload(0x40)\n      dup1\n      swap2\n      sub\n      swap1\n      return\n        /* \"Primitives.sol\":345:384  int256 public maxInt = type(int256).max */\n    tag_9:\n      tag_42\n      tag_43\n      jump\t// in\n    tag_42:\n      mload(0x40)\n      tag_44\n      swap2\n      swap1\n      tag_34\n      jump\t// in\n    tag_44:\n      mload(0x40)\n      dup1\n      swap2\n      sub\n      swap1\n      return\n        /* \"Primitives.sol\":299:338  int256 public minInt = type(int256).min */\n    tag_10:\n      tag_45\n      tag_46\n      jump\t// in\n    tag_45:\n      mload(0x40)\n      tag_47\n      swap2\n      swap1\n      tag_34\n      jump\t// in\n    tag_47:\n      mload(0x40)\n      dup1\n      swap2\n      sub\n      swap1\n      return\n        /* \"Primitives.sol\":211:230  int8 public i8 = -1 */\n    tag_11:\n      tag_48\n      tag_49\n      jump\t// in\n    tag_48:\n      mload(0x40)\n      tag_50\n      swap2\n      swap1\n      tag_51\n      jump\t// in\n    tag_50:\n      mload(0x40)\n      dup1\n      swap2\n      sub\n      swap1\n      return\n        /* \"Primitives.sol\":122:141  uint8 public u8 = 1 */\n    tag_12:\n      tag_52\n      tag_53\n      jump\t// in\n    tag_52:\n      mload(0x40)\n      tag_54\n      swap2\n      swap1\n      tag_55\n      jump\t// in\n    tag_54:\n      mload(0x40)\n      dup1\n      swap2\n      sub\n      swap1\n      return\n        /* \"Primitives.sol\":180:202  uint256 public u = 123 */\n    tag_13:\n      tag_56\n      tag_57\n      jump\t// in\n    tag_56:\n      mload(0x40)\n      tag_58\n      swap2\n      swap1\n      tag_23\n      jump\t// in\n    tag_58:\n      mload(0x40)\n      dup1\n      swap2\n      sub\n      swap1\n      return\n        /* \"Primitives.sol\":532:555  bool public defaultBool */\n    tag_14:\n      tag_59\n      tag_60\n      jump\t// in\n    tag_59:\n      mload(0x40)\n      tag_61\n      swap2\n      swap1\n      tag_30\n      jump\t// in\n    tag_61:\n      mload(0x40)\n      dup1\n      swap2\n      sub\n      swap1\n      return\n        /* \"Primitives.sol\":268:290  int256 public i = -123 */\n    tag_15:\n      tag_62\n      tag_63\n      jump\t// in\n    tag_62:\n      mload(0x40)\n      tag_64\n      swap2\n      swap1\n      tag_34\n      jump\t// in\n    tag_64:\n      mload(0x40)\n      dup1\n      swap2\n      sub\n      swap1\n      return\n        /* \"Primitives.sol\":645:671  address public defaultAddr */\n    tag_16:\n      tag_65\n      tag_66\n      jump\t// in\n    tag_65:\n      mload(0x40)\n      tag_67\n      swap2\n      swap1\n      tag_41\n      jump\t// in\n    tag_67:\n      mload(0x40)\n      dup1\n      swap2\n      sub\n      swap1\n      return\n        /* \"Primitives.sol\":571:597  uint256 public defaultUint */\n    tag_21:\n      sload(0x09)\n      dup2\n      jump\t// out\n        /* \"Primitives.sol\":148:173  uint256 public u256 = 456 */\n    tag_25:\n      sload(0x01)\n      dup2\n      jump\t// out\n        /* \"Primitives.sol\":87:109  bool public boo = true */\n    tag_28:\n      0x00\n      dup1\n      sload\n      swap1\n      0x0100\n      exp\n      swap1\n      div\n      0xff\n      and\n      dup2\n      jump\t// out\n        /* \"Primitives.sol\":237:261  int256 public i256 = 456 */\n    tag_32:\n      sload(0x04)\n      dup2\n      jump\t// out\n        /* \"Primitives.sol\":609:633  int256 public defaultInt */\n    tag_36:\n      sload(0x0a)\n      dup2\n      jump\t// out\n        /* \"Primitives.sol\":393:457  address public addr = 0xCA35b7d915458EF540aDe6068dFe2F44E8fa733c */\n    tag_39:\n      0x08\n      0x00\n      swap1\n      sload\n      swap1\n      0x0100\n      exp\n      swap1\n      div\n      0xffffffffffffffffffffffffffffffffffffffff\n      and\n      dup2\n      jump\t// out\n        /* \"Primitives.sol\":345:384  int256 public maxInt = type(int256).max */\n    tag_43:\n      sload(0x07)\n      dup2\n      jump\t// out\n        /* \"Primitives.sol\":299:338  int256 public minInt = type(int256).min */\n    tag_46:\n      sload(0x06)\n      dup2\n      jump\t// out\n        /* \"Primitives.sol\":211:230  int8 public i8 = -1 */\n    tag_49:\n      0x03\n      0x00\n      swap1\n      sload\n      swap1\n      0x0100\n      exp\n      swap1\n      div\n      0x00\n      signextend\n      dup2\n      jump\t// out\n        /* \"Primitives.sol\":122:141  uint8 public u8 = 1 */\n    tag_53:\n      0x00\n      0x01\n      swap1\n      sload\n      swap1\n      0x0100\n      exp\n      swap1\n      div\n      0xff\n      and\n      dup2\n      jump\t// out\n        /* \"Primitives.sol\":180:202  uint256 public u = 123 */\n    tag_57:\n      sload(0x02)\n      dup2\n      jump\t// out\n        /* \"Primitives.sol\":532:555  bool public defaultBool */\n    tag_60:\n      0x08\n      0x16\n      swap1\n      sload\n      swap1\n      0x0100\n      exp\n      swap1\n      div\n      0xff\n      and\n      dup2\n      jump\t// out\n        /* \"Primitives.sol\":268:290  int256 public i = -123 */\n    tag_63:\n      sload(0x05)\n      dup2\n      jump\t// out\n        /* \"Primitives.sol\":645:671  address public defaultAddr */\n    tag_66:\n      0x0b\n      0x00\n      swap1\n      sload\n      swap1\n      0x0100\n      exp\n      swap1\n      div\n      0xffffffffffffffffffffffffffffffffffffffff\n      and\n      dup2\n      jump\t// out\n        /* \"#utility.yul\":7:84   */\n    tag_68:\n        /* \"#utility.yul\":44:51   */\n      0x00\n        /* \"#utility.yul\":73:78   */\n      dup2\n        /* \"#utility.yul\":62:78   */\n      swap1\n      pop\n        /* \"#utility.yul\":7:84   */\n      swap2\n      swap1\n      pop\n      jump\t// out\n        /* \"#utility.yul\":90:208   */\n    tag_69:\n        /* \"#utility.yul\":177:201   */\n      tag_84\n        /* \"#utility.yul\":195:200   */\n      dup2\n        /* \"#utility.yul\":177:201   */\n      tag_68\n      jump\t// in\n    tag_84:\n        /* \"#utility.yul\":172:175   */\n      dup3\n        /* \"#utility.yul\":165:202   */\n      mstore\n        /* \"#utility.yul\":90:208   */\n      pop\n      pop\n      jump\t// out\n        /* \"#utility.yul\":214:436   */\n    tag_23:\n        /* \"#utility.yul\":307:311   */\n      0x00\n        /* \"#utility.yul\":345:347   */\n      0x20\n        /* \"#utility.yul\":334:343   */\n      dup3\n        /* \"#utility.yul\":330:348   */\n      add\n        /* \"#utility.yul\":322:348   */\n      swap1\n      pop\n        /* \"#utility.yul\":358:429   */\n      tag_86\n        /* \"#utility.yul\":426:427   */\n      0x00\n        /* \"#utility.yul\":415:424   */\n      dup4\n        /* \"#utility.yul\":411:428   */\n      add\n        /* \"#utility.yul\":402:408   */\n      dup5\n        /* \"#utility.yul\":358:429   */\n      tag_69\n      jump\t// in\n    tag_86:\n        /* \"#utility.yul\":214:436   */\n      swap3\n      swap2\n      pop\n      pop\n      jump\t// out\n        /* \"#utility.yul\":442:532   */\n    tag_70:\n        /* \"#utility.yul\":476:483   */\n      0x00\n        /* \"#utility.yul\":519:524   */\n      dup2\n        /* \"#utility.yul\":512:525   */\n      iszero\n        /* \"#utility.yul\":505:526   */\n      iszero\n        /* \"#utility.yul\":494:526   */\n      swap1\n      pop\n        /* \"#utility.yul\":442:532   */\n      swap2\n      swap1\n      pop\n      jump\t// out\n        /* \"#utility.yul\":538:647   */\n    tag_71:\n        /* \"#utility.yul\":619:640   */\n      tag_89\n        /* \"#utility.yul\":634:639   */\n      dup2\n        /* \"#utility.yul\":619:640   */\n      tag_70\n      jump\t// in\n    tag_89:\n        /* \"#utility.yul\":614:617   */\n      dup3\n        /* \"#utility.yul\":607:641   */\n      mstore\n        /* \"#utility.yul\":538:647   */\n      pop\n      pop\n      jump\t// out\n        /* \"#utility.yul\":653:863   */\n    tag_30:\n        /* \"#utility.yul\":740:744   */\n      0x00\n        /* \"#utility.yul\":778:780   */\n      0x20\n        /* \"#utility.yul\":767:776   */\n      dup3\n        /* \"#utility.yul\":763:781   */\n      add\n        /* \"#utility.yul\":755:781   */\n      swap1\n      pop\n        /* \"#utility.yul\":791:856   */\n      tag_91\n        /* \"#utility.yul\":853:854   */\n      0x00\n        /* \"#utility.yul\":842:851   */\n      dup4\n        /* \"#utility.yul\":838:855   */\n      add\n        /* \"#utility.yul\":829:835   */\n      dup5\n        /* \"#utility.yul\":791:856   */\n      tag_71\n      jump\t// in\n    tag_91:\n        /* \"#utility.yul\":653:863   */\n      swap3\n      swap2\n      pop\n      pop\n      jump\t// out\n        /* \"#utility.yul\":869:945   */\n    tag_72:\n        /* \"#utility.yul\":905:912   */\n      0x00\n        /* \"#utility.yul\":934:939   */\n      dup2\n        /* \"#utility.yul\":923:939   */\n      swap1\n      pop\n        /* \"#utility.yul\":869:945   */\n      swap2\n      swap1\n      pop\n      jump\t// out\n        /* \"#utility.yul\":951:1066   */\n    tag_73:\n        /* \"#utility.yul\":1036:1059   */\n      tag_94\n        /* \"#utility.yul\":1053:1058   */\n      dup2\n        /* \"#utility.yul\":1036:1059   */\n      tag_72\n      jump\t// in\n    tag_94:\n        /* \"#utility.yul\":1031:1034   */\n      dup3\n        /* \"#utility.yul\":1024:1060   */\n      mstore\n        /* \"#utility.yul\":951:1066   */\n      pop\n      pop\n      jump\t// out\n        /* \"#utility.yul\":1072:1290   */\n    tag_34:\n        /* \"#utility.yul\":1163:1167   */\n      0x00\n        /* \"#utility.yul\":1201:1203   */\n      0x20\n        /* \"#utility.yul\":1190:1199   */\n      dup3\n        /* \"#utility.yul\":1186:1204   */\n      add\n        /* \"#utility.yul\":1178:1204   */\n      swap1\n      pop\n        /* \"#utility.yul\":1214:1283   */\n      tag_96\n        /* \"#utility.yul\":1280:1281   */\n      0x00\n        /* \"#utility.yul\":1269:1278   */\n      dup4\n        /* \"#utility.yul\":1265:1282   */\n      add\n        /* \"#utility.yul\":1256:1262   */\n      dup5\n        /* \"#utility.yul\":1214:1283   */\n      tag_73\n      jump\t// in\n    tag_96:\n        /* \"#utility.yul\":1072:1290   */\n      swap3\n      swap2\n      pop\n      pop\n      jump\t// out\n        /* \"#utility.yul\":1296:1422   */\n    tag_74:\n        /* \"#utility.yul\":1333:1340   */\n      0x00\n        /* \"#utility.yul\":1373:1415   */\n      0xffffffffffffffffffffffffffffffffffffffff\n        /* \"#utility.yul\":1366:1371   */\n      dup3\n        /* \"#utility.yul\":1362:1416   */\n      and\n        /* \"#utility.yul\":1351:1416   */\n      swap1\n      pop\n        /* \"#utility.yul\":1296:1422   */\n      swap2\n      swap1\n      pop\n      jump\t// out\n        /* \"#utility.yul\":1428:1524   */\n    tag_75:\n        /* \"#utility.yul\":1465:1472   */\n      0x00\n        /* \"#utility.yul\":1494:1518   */\n      tag_99\n        /* \"#utility.yul\":1512:1517   */\n      dup3\n        /* \"#utility.yul\":1494:1518   */\n      tag_74\n      jump\t// in\n    tag_99:\n        /* \"#utility.yul\":1483:1518   */\n      swap1\n      pop\n        /* \"#utility.yul\":1428:1524   */\n      swap2\n      swap1\n      pop\n      jump\t// out\n        /* \"#utility.yul\":1530:1648   */\n    tag_76:\n        /* \"#utility.yul\":1617:1641   */\n      tag_101\n        /* \"#utility.yul\":1635:1640   */\n      dup2\n        /* \"#utility.yul\":1617:1641   */\n      tag_75\n      jump\t// in\n    tag_101:\n        /* \"#utility.yul\":1612:1615   */\n      dup3\n        /* \"#utility.yul\":1605:1642   */\n      mstore\n        /* \"#utility.yul\":1530:1648   */\n      pop\n      pop\n      jump\t// out\n        /* \"#utility.yul\":1654:1876   */\n    tag_41:\n        /* \"#utility.yul\":1747:1751   */\n      0x00\n        /* \"#utility.yul\":1785:1787   */\n      0x20\n        /* \"#utility.yul\":1774:1783   */\n      dup3\n        /* \"#utility.yul\":1770:1788   */\n      add\n        /* \"#utility.yul\":1762:1788   */\n      swap1\n      pop\n        /* \"#utility.yul\":1798:1869   */\n      tag_103\n        /* \"#utility.yul\":1866:1867   */\n      0x00\n        /* \"#utility.yul\":1855:1864   */\n      dup4\n        /* \"#utility.yul\":1851:1868   */\n      add\n        /* \"#utility.yul\":1842:1848   */\n      dup5\n        /* \"#utility.yul\":1798:1869   */\n      tag_76\n      jump\t// in\n    tag_103:\n        /* \"#utility.yul\":1654:1876   */\n      swap3\n      swap2\n      pop\n      pop\n      jump\t// out\n        /* \"#utility.yul\":1882:1971   */\n    tag_77:\n        /* \"#utility.yul\":1916:1923   */\n      0x00\n        /* \"#utility.yul\":1959:1964   */\n      dup2\n        /* \"#utility.yul\":1956:1957   */\n      0x00\n        /* \"#utility.yul\":1945:1965   */\n      signextend\n        /* \"#utility.yul\":1934:1965   */\n      swap1\n      pop\n        /* \"#utility.yul\":1882:1971   */\n      swap2\n      swap1\n      pop\n      jump\t// out\n        /* \"#utility.yul\":1977:2086   */\n    tag_78:\n        /* \"#utility.yul\":2058:2079   */\n      tag_106\n        /* \"#utility.yul\":2073:2078   */\n      dup2\n        /* \"#utility.yul\":2058:2079   */\n      tag_77\n      jump\t// in\n    tag_106:\n        /* \"#utility.yul\":2053:2056   */\n      dup3\n        /* \"#utility.yul\":2046:2080   */\n      mstore\n        /* \"#utility.yul\":1977:2086   */\n      pop\n      pop\n      jump\t// out\n        /* \"#utility.yul\":2092:2302   */\n    tag_51:\n        /* \"#utility.yul\":2179:2183   */\n      0x00\n        /* \"#utility.yul\":2217:2219   */\n      0x20\n        /* \"#utility.yul\":2206:2215   */\n      dup3\n        /* \"#utility.yul\":2202:2220   */\n      add\n        /* \"#utility.yul\":2194:2220   */\n      swap1\n      pop\n        /* \"#utility.yul\":2230:2295   */\n      tag_108\n        /* \"#utility.yul\":2292:2293   */\n      0x00\n        /* \"#utility.yul\":2281:2290   */\n      dup4\n        /* \"#utility.yul\":2277:2294   */\n      add\n        /* \"#utility.yul\":2268:2274   */\n      dup5\n        /* \"#utility.yul\":2230:2295   */\n      tag_78\n      jump\t// in\n    tag_108:\n        /* \"#utility.yul\":2092:2302   */\n      swap3\n      swap2\n      pop\n      pop\n      jump\t// out\n        /* \"#utility.yul\":2308:2394   */\n    tag_79:\n        /* \"#utility.yul\":2343:2350   */\n      0x00\n        /* \"#utility.yul\":2383:2387   */\n      0xff\n        /* \"#utility.yul\":2376:2381   */\n      dup3\n        /* \"#utility.yul\":2372:2388   */\n      and\n        /* \"#utility.yul\":2361:2388   */\n      swap1\n      pop\n        /* \"#utility.yul\":2308:2394   */\n      swap2\n      swap1\n      pop\n      jump\t// out\n        /* \"#utility.yul\":2400:2512   */\n    tag_80:\n        /* \"#utility.yul\":2483:2505   */\n      tag_111\n        /* \"#utility.yul\":2499:2504   */\n      dup2\n        /* \"#utility.yul\":2483:2505   */\n      tag_79\n      jump\t// in\n    tag_111:\n        /* \"#utility.yul\":2478:2481   */\n      dup3\n        /* \"#utility.yul\":2471:2506   */\n      mstore\n        /* \"#utility.yul\":2400:2512   */\n      pop\n      pop\n      jump\t// out\n        /* \"#utility.yul\":2518:2732   */\n    tag_55:\n        /* \"#utility.yul\":2607:2611   */\n      0x00\n        /* \"#utility.yul\":2645:2647   */\n      0x20\n        /* \"#utility.yul\":2634:2643   */\n      dup3\n        /* \"#utility.yul\":2630:2648   */\n      add\n        /* \"#utility.yul\":2622:2648   */\n      swap1\n      pop\n        /* \"#utility.yul\":2658:2725   */\n      tag_113\n        /* \"#utility.yul\":2722:2723   */\n      0x00\n        /* \"#utility.yul\":2711:2720   */\n      dup4\n        /* \"#utility.yul\":2707:2724   */\n      add\n        /* \"#utility.yul\":2698:2704   */\n      dup5\n        /* \"#utility.yul\":2658:2725   */\n      tag_80\n      jump\t// in\n    tag_113:\n        /* \"#utility.yul\":2518:2732   */\n      swap3\n      swap2\n      pop\n      pop\n      jump\t// out\n\n    auxdata: 0xa26469706673582212209fdb94b4e4c8221f639a71e0ed57a9711492b1aecaff5c38b79162902c96e67964736f6c63430008180033\n}\n",
				"bytecode": {
					"linkReferences": {},
					"object": "608060405260015f806101000a81548160ff02191690831515021790555060015f60016101000a81548160ff021916908360ff1602179055506101c8600155607b6002557fffffffffffffffffffffffffffffffffffffffffffffffffffffffffffffffff60035f6101000a81548160ff02191690835f0b60ff1602179055506101c86004557fffffffffffffffffffffffffffffffffffffffffffffffffffffffffffffff856005557f80000000000000000000000000000000000000000000000000000000000000006006557f7fffffffffffffffffffffffffffffffffffffffffffffffffffffffffffffff60075573ca35b7d915458ef540ade6068dfe2f44e8fa733c60085f6101000a81548173ffffffffffffffffffffffffffffffffffffffff021916908373ffffffffffffffffffffffffffffffffffffffff16021790555060b560f81b600860146101000a81548160ff021916908360f81c0217905550605660f81b600860156101000a81548160ff021916908360f81c021790555034801561018e575f80fd5b506104da8061019c5f395ff3fe608060405234801561000f575f80fd5b50600436106100e8575f3560e01c80637e4e14cc1161008a578063c6a898c511610064578063c6a898c514610218578063d668f5b514610236578063e5aa3d5814610254578063f2427d3714610272576100e8565b80637e4e14cc146101be578063921cda74146101dc578063ab3a58a3146101fa576100e8565b80634c27fd62116100c65780634c27fd62146101465780635abe622b14610164578063767800de146101825780637a4c2571146101a0576100e8565b80631570c2cb146100ec578063459b1acf1461010a5780634b3df20014610128575b5f80fd5b6100f4610290565b6040516101019190610368565b60405180910390f35b610112610296565b60405161011f9190610368565b60405180910390f35b61013061029c565b60405161013d919061039b565b60405180910390f35b61014e6102ac565b60405161015b91906103cc565b60405180910390f35b61016c6102b2565b60405161017991906103cc565b60405180910390f35b61018a6102b8565b6040516101979190610424565b60405180910390f35b6101a86102dd565b6040516101b591906103cc565b60405180910390f35b6101c66102e3565b6040516101d391906103cc565b60405180910390f35b6101e46102e9565b6040516101f19190610457565b60405180910390f35b6102026102fa565b60405161020f919061048b565b60405180910390f35b61022061030c565b60405161022d9190610368565b60405180910390f35b61023e610312565b60405161024b919061039b565b60405180910390f35b61025c610325565b60405161026991906103cc565b60405180910390f35b61027a61032b565b6040516102879190610424565b60405180910390f35b60095481565b60015481565b5f8054906101000a900460ff1681565b60045481565b600a5481565b60085f9054906101000a900473ffffffffffffffffffffffffffffffffffffffff1681565b60075481565b60065481565b60035f9054906101000a90045f0b81565b5f60019054906101000a900460ff1681565b60025481565b600860169054906101000a900460ff1681565b60055481565b600b5f9054906101000a900473ffffffffffffffffffffffffffffffffffffffff1681565b5f819050919050565b61036281610350565b82525050565b5f60208201905061037b5f830184610359565b92915050565b5f8115159050919050565b61039581610381565b82525050565b5f6020820190506103ae5f83018461038c565b92915050565b5f819050919050565b6103c6816103b4565b82525050565b5f6020820190506103df5f8301846103bd565b92915050565b5f73ffffffffffffffffffffffffffffffffffffffff82169050919050565b5f61040e826103e5565b9050919050565b61041e81610404565b82525050565b5f6020820190506104375f830184610415565b92915050565b5f815f0b9050919050565b6104518161043d565b82525050565b5f60208201905061046a5f830184610448565b92915050565b5f60ff82169050919050565b61048581610470565b82525050565b5f60208201905061049e5f83018461047c565b9291505056fea26469706673582212209fdb94b4e4c8221f639a71e0ed57a9711492b1aecaff5c38b79162902c96e67964736f6c63430008180033",
					"opcodes": "PUSH1 0x80 PUSH1 0x40 MSTORE PUSH1 0x1 PUSH0 DUP1 PUSH2 0x100 EXP DUP2 SLOAD DUP2 PUSH1 0xFF MUL NOT AND SWAP1 DUP4 ISZERO ISZERO MUL OR SWAP1 SSTORE POP PUSH1 0x1 PUSH0 PUSH1 0x1 PUSH2 0x100 EXP DUP2 SLOAD DUP2 PUSH1 0xFF MUL NOT AND SWAP1 DUP4 PUSH1 0xFF AND MUL OR SWAP1 SSTORE POP PUSH2 0x1C8 PUSH1 0x1 SSTORE PUSH1 0x7B PUSH1 0x2 SSTORE PUSH32 0xFFFFFFFFFFFFFFFFFFFFFFFFFFFFFFFFFFFFFFFFFFFFFFFFFFFFFFFFFFFFFFFF PUSH1 0x3 PUSH0 PUSH2 0x100 EXP DUP2 SLOAD DUP2 PUSH1 0xFF MUL NOT AND SWAP1 DUP4 PUSH0 SIGNEXTEND PUSH1 0xFF AND MUL OR SWAP1 SSTORE POP PUSH2 0x1C8 PUSH1 0x4 SSTORE PUSH32 0xFFFFFFFFFFFFFFFFFFFFFFFFFFFFFFFFFFFFFFFFFFFFFFFFFFFFFFFFFFFFFF85 PUSH1 0x5 SSTORE PUSH32 0x8000000000000000000000000000000000000000000000000000000000000000 PUSH1 0x6 SSTORE PUSH32 0x7FFFFFFFFFFFFFFFFFFFFFFFFFFFFFFFFFFFFFFFFFFFFFFFFFFFFFFFFFFFFFFF PUSH1 0x7 SSTORE PUSH20 0xCA35B7D915458EF540ADE6068DFE2F44E8FA733C PUSH1 0x8 PUSH0 PUSH2 0x100 EXP DUP2 SLOAD DUP2 PUSH20 0xFFFFFFFFFFFFFFFFFFFFFFFFFFFFFFFFFFFFFFFF MUL NOT AND SWAP1 DUP4 PUSH20 0xFFFFFFFFFFFFFFFFFFFFFFFFFFFFFFFFFFFFFFFF AND MUL OR SWAP1 SSTORE POP PUSH1 0xB5 PUSH1 0xF8 SHL PUSH1 0x8 PUSH1 0x14 PUSH2 0x100 EXP DUP2 SLOAD DUP2 PUSH1 0xFF MUL NOT AND SWAP1 DUP4 PUSH1 0xF8 SHR MUL OR SWAP1 SSTORE POP PUSH1 0x56 PUSH1 0xF8 SHL PUSH1 0x8 PUSH1 0x15 PUSH2 0x100 EXP DUP2 SLOAD DUP2 PUSH1 0xFF MUL NOT AND SWAP1 DUP4 PUSH1 0xF8 SHR MUL OR SWAP1 SSTORE POP CALLVALUE DUP1 ISZERO PUSH2 0x18E JUMPI PUSH0 DUP1 REVERT JUMPDEST POP PUSH2 0x4DA DUP1 PUSH2 0x19C PUSH0 CODECOPY PUSH0 RETURN INVALID PUSH1 0x80 PUSH1 0x40 MSTORE CALLVALUE DUP1 ISZERO PUSH2 0xF JUMPI PUSH0 DUP1 REVERT JUMPDEST POP PUSH1 0x4 CALLDATASIZE LT PUSH2 0xE8 JUMPI PUSH0 CALLDATALOAD PUSH1 0xE0 SHR DUP1 PUSH4 0x7E4E14CC GT PUSH2 0x8A JUMPI DUP1 PUSH4 0xC6A898C5 GT PUSH2 0x64 JUMPI DUP1 PUSH4 0xC6A898C5 EQ PUSH2 0x218 JUMPI DUP1 PUSH4 0xD668F5B5 EQ PUSH2 0x236 JUMPI DUP1 PUSH4 0xE5AA3D58 EQ PUSH2 0x254 JUMPI DUP1 PUSH4 0xF2427D37 EQ PUSH2 0x272 JUMPI PUSH2 0xE8 JUMP JUMPDEST DUP1 PUSH4 0x7E4E14CC EQ PUSH2 0x1BE JUMPI DUP1 PUSH4 0x921CDA74 EQ PUSH2 0x1DC JUMPI DUP1 PUSH4 0xAB3A58A3 EQ PUSH2 0x1FA JUMPI PUSH2 0xE8 JUMP JUMPDEST DUP1 PUSH4 0x4C27FD62 GT PUSH2 0xC6 JUMPI DUP1 PUSH4 0x4C27FD62 EQ PUSH2 0x146 JUMPI DUP1 PUSH4 0x5ABE622B EQ PUSH2 0x164 JUMPI DUP1 PUSH4 0x767800DE EQ PUSH2 0x182 JUMPI DUP1 PUSH4 0x7A4C2571 EQ PUSH2 0x1A0 JUMPI PUSH2 0xE8 JUMP JUMPDEST DUP1 PUSH4 0x1570C2CB EQ PUSH2 0xEC JUMPI DUP1 PUSH4 0x459B1ACF EQ PUSH2 0x10A JUMPI DUP1 PUSH4 0x4B3DF200 EQ PUSH2 0x128 JUMPI JUMPDEST PUSH0 DUP1 REVERT JUMPDEST PUSH2 0xF4 PUSH2 0x290 JUMP JUMPDEST PUSH1 0x40 MLOAD PUSH2 0x101 SWAP2 SWAP1 PUSH2 0x368 JUMP JUMPDEST PUSH1 0x40 MLOAD DUP1 SWAP2 SUB SWAP1 RETURN JUMPDEST PUSH2 0x112 PUSH2 0x296 JUMP JUMPDEST PUSH1 0x40 MLOAD PUSH2 0x11F SWAP2 SWAP1 PUSH2 0x368 JUMP JUMPDEST PUSH1 0x40 MLOAD DUP1 SWAP2 SUB SWAP1 RETURN JUMPDEST PUSH2 0x130 PUSH2 0x29C JUMP JUMPDEST PUSH1 0x40 MLOAD PUSH2 0x13D SWAP2 SWAP1 PUSH2 0x39B JUMP JUMPDEST PUSH1 0x40 MLOAD DUP1 SWAP2 SUB SWAP1 RETURN JUMPDEST PUSH2 0x14E PUSH2 0x2AC JUMP JUMPDEST PUSH1 0x40 MLOAD PUSH2 0x15B SWAP2 SWAP1 PUSH2 0x3CC JUMP JUMPDEST PUSH1 0x40 MLOAD DUP1 SWAP2 SUB SWAP1 RETURN JUMPDEST PUSH2 0x16C PUSH2 0x2B2 JUMP JUMPDEST PUSH1 0x40 MLOAD PUSH2 0x179 SWAP2 SWAP1 PUSH2 0x3CC JUMP JUMPDEST PUSH1 0x40 MLOAD DUP1 SWAP2 SUB SWAP1 RETURN JUMPDEST PUSH2 0x18A PUSH2 0x2B8 JUMP JUMPDEST PUSH1 0x40 MLOAD PUSH2 0x197 SWAP2 SWAP1 PUSH2 0x424 JUMP JUMPDEST PUSH1 0x40 MLOAD DUP1 SWAP2 SUB SWAP1 RETURN JUMPDEST PUSH2 0x1A8 PUSH2 0x2DD JUMP JUMPDEST PUSH1 0x40 MLOAD PUSH2 0x1B5 SWAP2 SWAP1 PUSH2 0x3CC JUMP JUMPDEST PUSH1 0x40 MLOAD DUP1 SWAP2 SUB SWAP1 RETURN JUMPDEST PUSH2 0x1C6 PUSH2 0x2E3 JUMP JUMPDEST PUSH1 0x40 MLOAD PUSH2 0x1D3 SWAP2 SWAP1 PUSH2 0x3CC JUMP JUMPDEST PUSH1 0x40 MLOAD DUP1 SWAP2 SUB SWAP1 RETURN JUMPDEST PUSH2 0x1E4 PUSH2 0x2E9 JUMP JUMPDEST PUSH1 0x40 MLOAD PUSH2 0x1F1 SWAP2 SWAP1 PUSH2 0x457 JUMP JUMPDEST PUSH1 0x40 MLOAD DUP1 SWAP2 SUB SWAP1 RETURN JUMPDEST PUSH2 0x202 PUSH2 0x2FA JUMP JUMPDEST PUSH1 0x40 MLOAD PUSH2 0x20F SWAP2 SWAP1 PUSH2 0x48B JUMP JUMPDEST PUSH1 0x40 MLOAD DUP1 SWAP2 SUB SWAP1 RETURN JUMPDEST PUSH2 0x220 PUSH2 0x30C JUMP JUMPDEST PUSH1 0x40 MLOAD PUSH2 0x22D SWAP2 SWAP1 PUSH2 0x368 JUMP JUMPDEST PUSH1 0x40 MLOAD DUP1 SWAP2 SUB SWAP1 RETURN JUMPDEST PUSH2 0x23E PUSH2 0x312 JUMP JUMPDEST PUSH1 0x40 MLOAD PUSH2 0x24B SWAP2 SWAP1 PUSH2 0x39B JUMP JUMPDEST PUSH1 0x40 MLOAD DUP1 SWAP2 SUB SWAP1 RETURN JUMPDEST PUSH2 0x25C PUSH2 0x325 JUMP JUMPDEST PUSH1 0x40 MLOAD PUSH2 0x269 SWAP2 SWAP1 PUSH2 0x3CC JUMP JUMPDEST PUSH1 0x40 MLOAD DUP1 SWAP2 SUB SWAP1 RETURN JUMPDEST PUSH2 0x27A PUSH2 0x32B JUMP JUMPDEST PUSH1 0x40 MLOAD PUSH2 0x287 SWAP2 SWAP1 PUSH2 0x424 JUMP JUMPDEST PUSH1 0x40 MLOAD DUP1 SWAP2 SUB SWAP1 RETURN JUMPDEST PUSH1 0x9 SLOAD DUP2 JUMP JUMPDEST PUSH1 0x1 SLOAD DUP2 JUMP JUMPDEST PUSH0 DUP1 SLOAD SWAP1 PUSH2 0x100 EXP SWAP1 DIV PUSH1 0xFF AND DUP2 JUMP JUMPDEST PUSH1 0x4 SLOAD DUP2 JUMP JUMPDEST PUSH1 0xA SLOAD DUP2 JUMP JUMPDEST PUSH1 0x8 PUSH0 SWAP1 SLOAD SWAP1 PUSH2 0x100 EXP SWAP1 DIV PUSH20 0xFFFFFFFFFFFFFFFFFFFFFFFFFFFFFFFFFFFFFFFF AND DUP2 JUMP JUMPDEST PUSH1 0x7 SLOAD DUP2 JUMP JUMPDEST PUSH1 0x6 SLOAD DUP2 JUMP JUMPDEST PUSH1 0x3 PUSH0 SWAP1 SLOAD SWAP1 PUSH2 0x100 EXP SWAP1 DIV PUSH0 SIGNEXTEND DUP2 JUMP JUMPDEST PUSH0 PUSH1 0x1 SWAP1 SLOAD SWAP1 PUSH2 0x100 EXP SWAP1 DIV PUSH1 0xFF AND DUP2 JUMP JUMPDEST PUSH1 0x2 SLOAD DUP2 JUMP JUMPDEST PUSH1 0x8 PUSH1 0x16 SWAP1 SLOAD SWAP1 PUSH2 0x100 EXP SWAP1 DIV PUSH1 0xFF AND DUP2 JUMP JUMPDEST PUSH1 0x5 SLOAD DUP2 JUMP JUMPDEST PUSH1 0xB PUSH0 SWAP1 SLOAD SWAP1 PUSH2 0x100 EXP SWAP1 DIV PUSH20 0xFFFFFFFFFFFFFFFFFFFFFFFFFFFFFFFFFFFFFFFF AND DUP2 JUMP JUMPDEST PUSH0 DUP2 SWAP1 POP SWAP2 SWAP1 POP JUMP JUMPDEST PUSH2 0x362 DUP2 PUSH2 0x350 JUMP JUMPDEST DUP3 MSTORE POP POP JUMP JUMPDEST PUSH0 PUSH1 0x20 DUP3 ADD SWAP1 POP PUSH2 0x37B PUSH0 DUP4 ADD DUP5 PUSH2 0x359 JUMP JUMPDEST SWAP3 SWAP2 POP POP JUMP JUMPDEST PUSH0 DUP2 ISZERO ISZERO SWAP1 POP SWAP2 SWAP1 POP JUMP JUMPDEST PUSH2 0x395 DUP2 PUSH2 0x381 JUMP JUMPDEST DUP3 MSTORE POP POP JUMP JUMPDEST PUSH0 PUSH1 0x20 DUP3 ADD SWAP1 POP PUSH2 0x3AE PUSH0 DUP4 ADD DUP5 PUSH2 0x38C JUMP JUMPDEST SWAP3 SWAP2 POP POP JUMP JUMPDEST PUSH0 DUP2 SWAP1 POP SWAP2 SWAP1 POP JUMP JUMPDEST PUSH2 0x3C6 DUP2 PUSH2 0x3B4 JUMP JUMPDEST DUP3 MSTORE POP POP JUMP JUMPDEST PUSH0 PUSH1 0x20 DUP3 ADD SWAP1 POP PUSH2 0x3DF PUSH0 DUP4 ADD DUP5 PUSH2 0x3BD JUMP JUMPDEST SWAP3 SWAP2 POP POP JUMP JUMPDEST PUSH0 PUSH20 0xFFFFFFFFFFFFFFFFFFFFFFFFFFFFFFFFFFFFFFFF DUP3 AND SWAP1 POP SWAP2 SWAP1 POP JUMP JUMPDEST PUSH0 PUSH2 0x40E DUP3 PUSH2 0x3E5 JUMP JUMPDEST SWAP1 POP SWAP2 SWAP1 POP JUMP JUMPDEST PUSH2 0x41E DUP2 PUSH2 0x404 JUMP JUMPDEST DUP3 MSTORE POP POP JUMP JUMPDEST PUSH0 PUSH1 0x20 DUP3 ADD SWAP1 POP PUSH2 0x437 PUSH0 DUP4 ADD DUP5 PUSH2 0x415 JUMP JUMPDEST SWAP3 SWAP2 POP POP JUMP JUMPDEST PUSH0 DUP2 PUSH0 SIGNEXTEND SWAP1 POP SWAP2 SWAP1 POP JUMP JUMPDEST PUSH2 0x451 DUP2 PUSH2 0x43D JUMP JUMPDEST DUP3 MSTORE POP POP JUMP JUMPDEST PUSH0 PUSH1 0x20 DUP3 ADD SWAP1 POP PUSH2 0x46A PUSH0 DUP4 ADD DUP5 PUSH2 0x448 JUMP JUMPDEST SWAP3 SWAP2 POP POP JUMP JUMPDEST PUSH0 PUSH1 0xFF DUP3 AND SWAP1 POP SWAP2 SWAP1 POP JUMP JUMPDEST PUSH2 0x485 DUP2 PUSH2 0x470 JUMP JUMPDEST DUP3 MSTORE POP POP JUMP JUMPDEST PUSH0 PUSH1 0x20 DUP3 ADD SWAP1 POP PUSH2 0x49E PUSH0 DUP4 ADD DUP5 PUSH2 0x47C JUMP JUMPDEST SWAP3 SWAP2 POP POP JUMP INVALID LOG2 PUSH5 0x6970667358 0x22 SLT KECCAK256 SWAP16 0xDB SWAP5 0xB4 0xE4 0xC8 0x22 0x1F PUSH4 0x9A71E0ED JUMPI 0xA9 PUSH18 0x1492B1AECAFF5C38B79162902C96E6796473 PUSH16 0x6C634300081800330000000000000000 "
				},
				"gasEstimates": {
					"creation": {
						"codeDepositCost": "248400",
						"executionCost": "278688",
						"totalCost": "527088"
					},
					"external": {
						"addr()": "2575",
						"boo()": "2531",
						"defaultAddr()": "2596",
						"defaultBool()": "2561",
						"defaultInt()": "2470",
						"defaultUint()": "2449",
						"i()": "2491",
						"i256()": "2448",
						"i8()": "2513",
						"maxInt()": "2514",
						"minInt()": "2448",
						"u()": "2447",
						"u256()": "2471",
						"u8()": "2583"
					}
				},
				"methodIdentifiers": {
					"addr()": "767800de",
					"boo()": "4b3df200",
					"defaultAddr()": "f2427d37",
					"defaultBool()": "d668f5b5",
					"defaultInt()": "5abe622b",
					"defaultUint()": "1570c2cb",
					"i()": "e5aa3d58",
					"i256()": "4c27fd62",
					"i8()": "921cda74",
					"maxInt()": "7a4c2571",
					"minInt()": "7e4e14cc",
					"u()": "c6a898c5",
					"u256()": "459b1acf",
					"u8()": "ab3a58a3"
				}
			},
			"storageLayout": {
				"storage": [
					{
						"astId": 4,
						"contract": "Primitives.sol:Primitives",
						"label": "boo",
						"offset": 0,
						"slot": "0",
						"type": "t_bool"
					},
					{
						"astId": 7,
						"contract": "Primitives.sol:Primitives",
						"label": "u8",
						"offset": 1,
						"slot": "0",
						"type": "t_uint8"
					},
					{
						"astId": 10,
						"contract": "Primitives.sol:Primitives",
						"label": "u256",
						"offset": 0,
						"slot": "1",
						"type": "t_uint256"
					},
					{
						"astId": 13,
						"contract": "Primitives.sol:Primitives",
						"label": "u",
						"offset": 0,
						"slot": "2",
						"type": "t_uint256"
					},
					{
						"astId": 17,
						"contract": "Primitives.sol:Primitives",
						"label": "i8",
						"offset": 0,
						"slot": "3",
						"type": "t_int8"
					},
					{
						"astId": 20,
						"contract": "Primitives.sol:Primitives",
						"label": "i256",
						"offset": 0,
						"slot": "4",
						"type": "t_int256"
					},
					{
						"astId": 24,
						"contract": "Primitives.sol:Primitives",
						"label": "i",
						"offset": 0,
						"slot": "5",
						"type": "t_int256"
					},
					{
						"astId": 31,
						"contract": "Primitives.sol:Primitives",
						"label": "minInt",
						"offset": 0,
						"slot": "6",
						"type": "t_int256"
					},
					{
						"astId": 38,
						"contract": "Primitives.sol:Primitives",
						"label": "maxInt",
						"offset": 0,
						"slot": "7",
						"type": "t_int256"
					},
					{
						"astId": 41,
						"contract": "Primitives.sol:Primitives",
						"label": "addr",
						"offset": 0,
						"slot": "8",
						"type": "t_address"
					},
					{
						"astId": 44,
						"contract": "Primitives.sol:Primitives",
						"label": "a",
						"offset": 20,
						"slot": "8",
						"type": "t_bytes1"
					},
					{
						"astId": 47,
						"contract": "Primitives.sol:Primitives",
						"label": "b",
						"offset": 21,
						"slot": "8",
						"type": "t_bytes1"
					},
					{
						"astId": 49,
						"contract": "Primitives.sol:Primitives",
						"label": "defaultBool",
						"offset": 22,
						"slot": "8",
						"type": "t_bool"
					},
					{
						"astId": 51,
						"contract": "Primitives.sol:Primitives",
						"label": "defaultUint",
						"offset": 0,
						"slot": "9",
						"type": "t_uint256"
					},
					{
						"astId": 53,
						"contract": "Primitives.sol:Primitives",
						"label": "defaultInt",
						"offset": 0,
						"slot": "10",
						"type": "t_int256"
					},
					{
						"astId": 55,
						"contract": "Primitives.sol:Primitives",
						"label": "defaultAddr",
						"offset": 0,
						"slot": "11",
						"type": "t_address"
					}
				],
				"types": {
					"t_address": {
						"encoding": "inplace",
						"label": "address",
						"numberOfBytes": "20"
					},
					"t_bool": {
						"encoding": "inplace",
						"label": "bool",
						"numberOfBytes": "1"
					},
					"t_bytes1": {
						"encoding": "inplace",
						"label": "bytes1",
						"numberOfBytes": "1"
					},
					"t_int256": {
						"encoding": "inplace",
						"label": "int256",
						"numberOfBytes": "32"
					},
					"t_int8": {
						"encoding": "inplace",
						"label": "int8",
						"numberOfBytes": "1"
					},
					"t_uint256": {
						"encoding": "inplace",
						"label": "uint256",
						"numberOfBytes": "32"
					},
					"t_uint8": {
						"encoding": "inplace",
						"label": "uint8",
						"numberOfBytes": "1"
					}
				}
			},
			"userdoc": {
				"kind": "user",
				"methods": {},
				"version": 1
			}
		}
	}
}